:100000000C9449000C9436050C9440050C944A0558
:100010000C9454050C945E050C9468050C94FB43F9
:100020000C9472050C9468000C9468000C945C2489
:100030000C9463450C9400050C9416050C94EA0B83
:100040000C94EF040C94EF170C9468000C94680067
:100050000C9468000C9468000C9468000C94680080
:100060000C940B050C9468000C9468000C946800C8
:100070000C9468000C9468000C9468000C94680060
:100080000C9468000C9468000C94680000081C181C
:10009000141011241FBECFEFD0E1DEBFCDBF11E0A1
:1000A000A0E0B1E0E2E7F2EA00E00BBF02C0079097
:1000B0000D92AA30B107D9F713E0AAE0B1E001C070
:1000C0001D92AD30B107E1F70E94B1350C94385163
:1000D0000C940000E9E1F1E0DF01A80FB11D9C9153
:1000E000E60FF11D80818C93908308954F925F926B
:1000F0006F927F928F929F92AF92BF92CF92DF9238
:10010000EF92FF920F931F93CF93DF932C0180E028
:1001100090E0E9E1F1E08193019621E080309207DF
:10012000D1F7AA24BB246501EE24FF248701C9E18D
:10013000D1E0662E772488249924EE0CFF1C001F42
:10014000111F8991E80EF11C011D111DC601B50199
:10015000A40193010E94C050F201E60FF71F8081B5
:10016000E80EF11C011D111D8FEF90E0A0E0B0E042
:10017000E822F9220A231B23AA2DBB27A75EBE4F24
:100180009C91EE2DFF27E75EFE4F80818C9390833C
:100190000894A11CB11CC11CD11C90E0A91691E0CF
:1001A000B90690E0C90690E0D90639F6DF91CF9103
:1001B0001F910F91FF90EF90DF90CF90BF90AF9085
:1001C0009F908F907F906F905F904F9008950F93C6
:1001D0001F93CF93DF93A0910A01B0910B01119669
:1001E000B070B0930B01A0930A01E0910C01F09163
:1001F0000D01EE0FFF1F49E151E0BD01640F751FB6
:10020000EB018881E80FF11DF070F0930D01E09390
:100210000C01DB01382FCF01840F951FEC012881E1
:100220002C9338838C91032F112722273327080F13
:10023000111D211D311DF801F070E40FF51F8081A3
:100240009927DF91CF911F910F910895CF92DF925F
:10025000EF92FF920F931F93CF93DF93A0910A0128
:10026000B0910B011196B07020910C0130910D01ED
:10027000220F331F09E111E0BD01600F711FEB0177
:100280008881280F311D3070982FF901E00FF11F80
:10029000808188839083FB018081492F55276627C1
:1002A0007727480F511D611D711DFA01F070E00F95
:1002B000F11F6081772788279927982F872F762F1E
:1002C00066271196B070220F331F6D01C00ED11E2C
:1002D000E6014881240F311D3070542FF901E00FE1
:1002E000F11F408148835083F6014081C52EDD24F3
:1002F000EE24FF24C40ED11CE11CF11CF601F070A9
:10030000E00FF11F4081640F711D811D911D660F6B
:10031000771F881F991F1196B070B0930B01A0939F
:100320000A017D01E00EF11EE7014881F901E40FA9
:10033000F11DE20FF31FF070F0930D01E0930C013B
:10034000D701542F9F01200F311FE90148814C93A1
:1003500058832C91C52EDD24EE24FF24C20ED11C1F
:10036000E11CF11CF601F070E00FF11F2081332732
:10037000442755272170307040705070620F731FF2
:10038000841F951FDF91CF911F910F91FF90EF90E8
:10039000DF90CF9008952F923F924F925F926F928D
:1003A0007F928F929F92AF92BF92CF92DF92EF9205
:1003B000FF920F931F93CF93DF93CDB7DEB72B97A9
:1003C0000FB6F894DEBF0FBECDBF19821A821B8212
:1003D0001C82292F3327442755272D838E837F8323
:1003E000688780E090E0E9E1F1E08193019621E007
:1003F00080309207D1F7EE24FF24870120E030E01F
:1004000040E050E069E171E0A5E0CA2ED12CCC0EAD
:10041000DD1E220F331F441F551FFB018191BF01B9
:10042000280F311D411D511DD801C70183709070E7
:10043000A070B070F601E80FF91F8081280F311D00
:10044000411D511D307040705070AE2DBB27A75E0E
:10045000BE4F9C91E22FFF27E75EFE4F80818C9379
:1004600090830894E11CF11C011D111DF0E0EF16B2
:10047000F1E0FF06F0E00F07F0E01F0751F62091D2
:100480000C0130910D0140910A0150910B0160E087
:1004900070E04F5F5F4F5070220F331FFA01E75E2D
:1004A000FE4F8081280F311D3070DF01982FF90138
:1004B000E75EFE4F80818C9390836F5F7F4F81E07A
:1004C0006030780731F74F5F5F4F5070220F331F56
:1004D000BA01675E7E4FFB018081280F311D3070AD
:1004E000DB01982FF901E75EFE4F80818C939083AA
:1004F000FB018081E92EFF2400271127E80EF11C63
:10050000011D111DF701F070E75EFE4F80819927F4
:10051000AA27BB276624782E892E9A2E4F5F5F4F1D
:100520005070BA01675E7E4FFB018081F901E80FD0
:10053000F11DCF01820F931F9070DB013C91FC01F4
:10054000E75EFE4F20812C933083FB012081E32E58
:10055000FF2400271127E20EF11C011D111DF701D8
:10056000F070E75EFE4F2081620E711C811C911CB1
:100570008A010F5F1F4F107010930B0100930A0147
:10058000A801475E5E4FFA012081BC01620F711D18
:10059000680F791F707070930D0160930C01DA0180
:1005A000FB01E75EFE4F80818C932083FA018081FE
:1005B000332744275527280F311D411D511D660C37
:1005C000771C881C991CF901F070E75EFE4F808152
:1005D0009927AA27BB2781709070A070B070680E11
:1005E000791E8A1E9B1EA40193012224332421011B
:1005F0001986898582508370E1E0F0E0EC0FFD1FE1
:10060000E80FF11D80818BBEF72DE62DD895902D3A
:100610009827E1E0F0E0EC0FFD1F8985E80FF11D60
:100620008081920F890F982F991F9927991F880F02
:10063000890F808399859F5F93709987A8014F5F89
:100640005F4F50709B01220F331FBA01675E7E4FD0
:10065000FB018081280F311D3070DB01982FF901DB
:10066000E75EFE4F80818C939083FB018081E92EB1
:10067000FF2400271127E80EF11C011D111DF701B1
:10068000F070E75EFE4F80819927AA27BB27AA2436
:10069000B82EC92EDA2E4F5F5F4F5070220F331FD6
:1006A000BA01675E7E4FFB018081280F311D3070DB
:1006B000DB01982FF901E75EFE4F80818C939083D8
:1006C000FB018081E92EFF2400271127E80EF11C91
:1006D000011D111DF701F070E75EFE4F8081A80E2D
:1006E000B11CC11CD11C8A010F5F1F4F1070A801E3
:1006F000475E5E4FFA018081B901680F711D620F7C
:10070000731F7070DA01982FFB01E75EFE4F808146
:100710008C939083FA018081292F33274427552712
:10072000280F311D411D511DAA0CBB1CCC1CDD1C0A
:10073000F901F070E75EFE4F80819927AA27BB2759
:1007400081709070A070B070A80EB91ECA1EDB1E1A
:100750000894211C311C411C511CA4019301FAE195
:100760002F16F1E93F06F7E14F06F0E05F0619F0BA
:10077000350146013ECF70930D0160930C0110933B
:100780000B0100930A0122243324442455246624B7
:100790007724882499249E012F5F3F4F3B872A8727
:1007A00008E0222D332D442D552D662D772D882DD3
:1007B000992D0E940350222E332E442E552E662E44
:1007C000772E882E992EEA85FB85A080BB24CC2429
:1007D000DD24EE24FF2400E010E02A0DE1E02215E4
:1007E00008F0E0E0332D3B0DA1E0331508F0A0E068
:1007F000E30FF1E0E31708F0F0E0AF2B3E2F442DBC
:100800004C0DB1E0441508F0B0E0EA2FE40FF1E040
:10081000E41708F0F0E0BF2B4E2F552D5D0DA1E041
:10082000551508F0A0E0EB2FE50FF1E0E51708F013
:10083000F0E0AF2B5E2F662D6E0DB1E0661508F06F
:10084000B0E0EA2FE60FF1E0E61708F0F0E0BF2B8A
:100850006E2F772D7F0DA1E0771508F0A0E0EB2F2C
:10086000E70FF1E0E71708F0F0E0AF2B7E2F882DBF
:10087000800FB1E0881508F0B0E0EA2FE80FF1E052
:10088000E81708F0F0E0FB2B992D910FF90F222EBD
:10089000332E442E552E662E772E8E2E9F2E2A8591
:1008A0003B852F5F3F4F3B872A87CE010596281750
:1008B000390709F075CF222D332D8E2F9F2F2B96C0
:1008C0000FB6F894DEBF0FBECDBFDF91CF911F9161
:1008D0000F91FF90EF90DF90CF90BF90AF909F90DF
:1008E0008F907F906F905F904F903F902F900895E2
:1008F0008FB7F894992708958FBF0895282F9FB731
:10090000F894E82FFF27E851FD4F80818F3F91F445
:100910008091F802821781F40DC02093E50206C091
:10092000E091F802FF27E851FD4F20832093F80261
:1009300020E007C025E005C08091E5028F3F81F7E8
:10094000ECCF892F99278FBF822F99270895E82F01
:100950008FB7F894482F55278FB7F894282F33274F
:1009600090E080917602882309F491E02FBF9923CB
:1009700021F04FBF80E090E008954FBF6E9AEFB92D
:10098000779BFECF8FB1872F99276E9A8FB9779B70
:10099000FECF8FB16E9A6FB9779BFECF8FB199273B
:1009A0000895682F8FB7F894482F55278FB7F8947C
:1009B000282F332790E080917602882309F491E074
:1009C0002FBF992321F04FBF80E090E008954FBFE3
:1009D0006E9A6FB9779BFECF8FB1992708951F92BA
:1009E0000F920FB60F9211248F9383B783BF00B677
:1009F00000FCFDCF8F910F900FBE0F901F901895A8
:100A000078941F920F920FB60F9211240F900FBE81
:100A10000F901F90189578941F920F920FB60F9217
:100A200011240F900FBE0F901F90189578941F926D
:100A30000F920FB60F9211242F933F938F939F9392
:100A40002FB7F894332780912F02909130020196AE
:100A50009093300280932F022FBF9F918F913F91EF
:100A60002F910F900FBE0F901F9018951F920F920D
:100A70000FB60F9211240F900FBE0F901F90189574
:100A80001F920F920FB60F9211240F900FBE0F906E
:100A90001F9018951F920F920FB60F9211240F906E
:100AA0000FBE0F901F9018951F920F920FB60F92C6
:100AB00011240F900FBE0F901F9018951F920F9248
:100AC0000FB60F9211240F900FBE0F901F90189524
:100AD0001F920F920FB60F9211240F900FBE0F901E
:100AE0001F9018951F920F920FB60F9211240F901E
:100AF0000FBE0F901F901895EF92FF920F931F93C8
:100B00008FB7F894282F3327E22F91B782B746B7D3
:100B1000981711F041FF02C02FBFA9C08091960223
:100B2000882309F45EC06FB7F89482B720919002D1
:100B300030919102409192025091930206B601FECB
:100B40000FC081B792B7280F311D411D511D2F5F76
:100B50003F4F4F4F5F4F290F311D411D511D04C0A5
:100B6000280F311D411D511D862F99278FBFE09001
:100B70008902F0908A0200918B0210918C02809180
:100B8000C7029091C802A091C902B091CA022E1961
:100B90003F09400B510B281739074A075B0728F01C
:100BA0001092960286EE71E01EC0A8019701280FF0
:100BB000391F4A1F5B1F8091900290919102A09172
:100BC0009202B0919302281B390B4A0B5B0B273E14
:100BD00031054105510528F4822F223018F482E0B6
:100BE00001C086EE70E0682F615000B601FCFDCFB9
:100BF00082B7681709F46F5F2091900230919102DB
:100C00004091920250919302DA01C9010196A11D0F
:100C1000B11D860F911DA11DB11D82179307A40759
:100C2000B50710F4622F609561BFEFBF7723F9F02D
:100C30009FB7F8948091E8028F3F81F48091F80289
:100C4000882361F00FC01092E50206C0E091F8021F
:100C5000FF27E851FD4F10821092F802892F992743
:100C60008FBF05C08091E5028F3F81F7ECCF1F91C8
:100C70000F91FF90EF9008959FB7F894292F332795
:100C8000A22F90910201981721F02FBF81E090E0F0
:100C900008958FEF8093020130911301332309F0FF
:100CA00079C08FB7F8949927109276028FBF809100
:100CB0001301882309F0A7C0409102014F3F09F0BA
:100CC000A2C08FB7F894282F332790E08091760246
:100CD000882309F491E02FBF992309F494C081E09F
:100CE0008093280280911902882319F0109228021B
:100CF0008AC080911401823009F046C080910501BC
:100D0000882309F080C08091030190E08F3F09F4AF
:100D100091E09923A1F58F3F19F42FEF30E00DC03A
:100D2000282F3327F901E450FD4F80818093030180
:100D30008F3F11F440930401408320938F0281E0A0
:100D4000809314019FB7F8948091F2028F3F99F439
:100D50008091F8028A3009F05DC00DC08AE080936E
:100D6000E50207C0E091F802FF27E851FD4F8AE055
:100D700080838093F802892F99278FBF05C0409305
:100D80000501109214014CC080911401882309F4CC
:100D900047C039C080E065E00E948D50292F492F5F
:100DA0005527832F9927042E02C0959587950A947D
:100DB000E2F780FF2CC02093020181E090E002C0A6
:100DC000880F991F4A95E2F78095382330931301D5
:100DD0009FB7F8948091F0028F3F91F48091F802D0
:100DE000883019F50DC088E08093E50207C0E091D6
:100DF000F802FF27E851FD4F88E080838093F802D6
:100E0000892F99278FBFAFBF80E090E00895822F90
:100E10008F5FC1CF8091E5028F3F09F0A3CF9ECFB6
:100E20006E981092FA02C09AEECF8091E5028F3F41
:100E3000F1F6D9CFDF92EF92FF920F931F937B01D0
:100E40008C018FB7F894E0912F02F09130022CB50D
:100E50003DB506B602FE03C031962CB53DB59927C7
:100E60008FBFDFB6F894CF01AA27BB27DC019927F3
:100E7000882744275527822B932BA42BB52B8093AF
:100E80006D0290936E02A0936F02B0937002E09295
:100E9000DE02F092DF020093E0021093E1024FB70E
:100EA000F89480912F02909130022CB53DB506B692
:100EB00002FE03C001962CB53DB5AA27BB278C01C5
:100EC000FF24EE24C901AA27BB27E82AF92A0A2B06
:100ED0001B2B842F99278FBF80916D0290916E02FA
:100EE000A0916F02B09170022091DE023091DF027A
:100EF0004091E0025091E102280F391F4A1F5B1F09
:100F0000E816F9060A071B0730F0281739074A07C1
:100F10005B0758F005C0281739074A075B07E0F55B
:100F2000E216F30604071507B8F5DA01C9018E19B0
:100F30009F09A00BB10B813060E8960760E0A6071F
:100F400060E0B60768F120E030E840E050E0E20EF3
:100F5000F31E041F151FE0926D02F0926E020093C3
:100F60006F021093700220E030E84FEF5FEFE20E67
:100F7000F31E041F151F80509048A040B04080937E
:100F8000DE029093DF02A093E002B093E10280E0E2
:100F900090E8A0E0B0E014C080E090E0A0E0B0E015
:100FA00020936D0230936E0240936F025093700253
:100FB0001092DE021092DF021092E0021092E10223
:100FC000BC012CB53DB5C9018E199F090396861742
:100FD000970718F0C901039603C0C701860F971F32
:100FE000009711F481E090E001979BBD8ABD80E1FC
:100FF00086BF87B7806187BF8D2D99278FBF1F91CF
:101000000F91FF90EF90DF900895582F81E090E0CE
:10101000909316018093150110921902809113018B
:10102000882309F06BC0409102014F3F09F066C070
:101030008FB7F894282F332790E080917602882389
:1010400009F491E02FBF992309F458C081E08093FF
:10105000280280911902882319F0109228024EC0AC
:1010600080911401823009F045C0809105018823E8
:1010700009F044C08091030190E08F3F09F491E0B2
:10108000992399F58F3F19F42FEF30E00DC0282FE9
:101090003327F901E450FD4F8081809303018F3F96
:1010A00011F440930401408320938F0281E08093E8
:1010B00014019FB7F8948091F2028F3F91F48091D0
:1010C000F8028A30B1F50DC08AE08093E50207C0CE
:1010D000E091F802FF27E851FD4F8AE0808380937A
:1010E000F802892F99278FBF05C040930501109200
:1010F000140124C080911401882301F150930F0141
:101100009FB7F8948091EC028F3F11F58091F8021F
:101110008430C9F41DC084E08093E50207C0E091EB
:10112000F802FF27E851FD4F84E080838093F802A6
:101130000FC08091E5028F3F59F6C6CF6E9810928E
:10114000FA02C09ADBCF8091E5028F3F41F7E3CFEF
:10115000892F99278FBF08950F931F93CF93DF9304
:101160002FB7F894332790937D0280937C0270937D
:101170002D0260932C02509395024093940210929A
:101180003302109232022FBF452B09F44DC08FB1AC
:101190008FB7F8949927E0917C02F0917D0200913D
:1011A0002C0210912D026091320270913302409115
:1011B0009402509195029B01265F3F4F42175307BF
:1011C00008F49A018FBFE801C60FD71FDF01A60FF1
:1011D000B71F2150304015C0309731F08C916E9A76
:1011E0008FB9779BFECF04C06E9A1FB8779BFECF56
:1011F0008FB10115110509F088836F5F7F4F21962C
:1012000011966217730740F36F9A9FB7F89430975F
:1012100029F0E60FF71F80818FB901C01FB87093C6
:101220003302609332021EC09FB7F8948091F1029E
:101230008F3FC1F48091F802893079F413C089E0BE
:101240008093E50207C0E091F802FF27E851FD4FC7
:1012500089E080838093F80205C08091E5028F3F8A
:1012600091F7EDCF892F99278FBF80E090E0DF9134
:10127000CF911F910F910895382F8FB7F894482F71
:101280009FB7F89480917602882311F021E004C082
:1012900081E08093760220E0892F99278FBF222357
:1012A00021F04FBF85E090E00895809105018823EB
:1012B000D9F43093020115C082E08093140110929A
:1012C00005016E98BA9ABB98B99AB89A6C9AC09868
:1012D0006F98709A6B986A9868986E9A309302012A
:1012E00080E04FBF9927089580911401882321F34E
:1012F0008FB7F8949927109276028FBF81E0F1CFD3
:10130000382F4FB7F8949FB7F894809176028823CE
:1013100011F021E004C081E08093760220E0892F63
:1013200099278FBF222309F05AC030930201809180
:101330000501882309F060C09FB7F8948091F002FE
:101340008F3FD1F58091F802883009F05BC034C03E
:1013500088E026C0E091F802FF27E851FD4F88E0C1
:1013600028C06E98BA9ABB98B99AB89A6C9AC098E5
:101370006F98709A6B986A9868986E9A81E08093DB
:10138000140110928F029FB7F8948091F2028F3F60
:1013900099F48091F8028A3009F03FC00DC08AE0CC
:1013A0008093E50207C0E091F802FF27E851FD4F66
:1013B0008AE080838093F802892F99278FBF38C0F5
:1013C000E0910401EE23A1F12EC01092030104C0AC
:1013D000FF27E450FD4F10821092040129C081E0E4
:1013E00090E002C0880F991F3A95E2F7209113010F
:1013F000282B209313011CC080911401882309F429
:10140000B0CF06C08091E5028F3F09F0A3CFA0CFF7
:101410008091FC028F3F61F4D3CF8091E5028F3F32
:1014200009F0C1CFBCCF809103018F3F89F6CDCFAA
:10143000842F99278FBF80E090E008958FB7F894AC
:10144000382F9FB7F89480917602882311F021E01D
:1014500004C081E08093760220E0892F99278FBF16
:10146000222319F03FBF45E022C080910501882367
:1014700009F095C012C082E080931401109205011A
:101480006E98BA9ABB98B99AB89A6C9AC0986F98A5
:10149000709A6B986A9868986E9A83E080930201BC
:1014A00080E03FBF9927482F882309F4A1C03FB7A8
:1014B000F8949FB7F89480917602882311F021E088
:1014C00004C081E08093760220E0892F99278FBFA6
:1014D000222309F05BC083E0809302018091050123
:1014E000882309F069C09FB7F8948091F0028F3F7C
:1014F000D1F58091F802883009F064C034C088E0EA
:1015000026C0E091F802FF27E851FD4F88E028C08F
:101510006E98BA9ABB98B99AB89A6C9AC0986F9814
:10152000709A6B986A9868986E9A81E0809314011B
:1015300010928F029FB7F8948091F2028F3F99F436
:101540008091F8028A3009F048C00DC08AE080938B
:10155000E50207C0E091F802FF27E851FD4F8AE05D
:1015600080838093F802892F99278FBF14C0E09160
:101570000401EE2381F037C01092030104C0FF275D
:10158000E450FD4F10821092040105C080911301B8
:10159000886080931301832F99278FBF29C0809182
:1015A0001401882309F467CF8FB7F8949927109214
:1015B00076028FBF81E075CF80911401882309F4F2
:1015C000A7CF06C08091E5028F3F09F09ACF97CF51
:1015D0008091FC028F3FF9F6CACF8091E5028F3FE0
:1015E00009F0B8CFB3CF809103018F3F41F6C4CF4C
:1015F000842F992708950F931F93CF93DF93E09142
:101600007302F091740287A19927682F882309F447
:101610006FE1C0988091E302861761F18FB7F8946B
:10162000482F55278FB7F894282F332790E08091C3
:101630007602882309F491E02FBF992311F04FBF60
:1016400019C04FBF6E9A85E18FB9779BFECF262FC9
:1016500033272F713070206E30688FB1832F992718
:101660006E9A8FB9779BFECF8FB16E9A2FB9779B09
:10167000FECF8FB16093E30240818FB7F894682F5B
:1016800077278FB7F894282F332790E08091760240
:10169000882309F491E02FBF992311F06FBF95C003
:1016A0006FBF8EE390E090938602809385026E9ADE
:1016B0008EE38FB9779BFECF41508FB12FB7F8944F
:1016C0003327F0937D02E0937C0210922D0210925A
:1016D0002C02842F99279093950280939402109264
:1016E0003302109232022FBF442309F44DC08FB150
:1016F0008FB7F8949927E0917C02F0917D020091D8
:101700002C0210912D0260913202709133024091AF
:101710009402509195029B01265F3F4F4217530759
:1017200008F49A018FBFE801C60FD71FDF01A60F8B
:10173000B71F2150304015C0309731F08C916E9A10
:101740008FB9779BFECF04C06E9A1FB8779BFECFF0
:101750008FB10115110509F088836F5F7F4F2196C6
:1017600011966217730740F36F9A9FB7F8943097FA
:1017700029F0E60FF71F80818FB901C01FB8709361
:1017800033026093320218C09FB7F8948091F1023F
:101790008F3F91F48091F802893091F40DC089E077
:1017A0008093E50207C0E091F802FF27E851FD4F62
:1017B00089E080838093F802892F99278FBF05C025
:1017C0008091E5028F3F79F7EACFDF91CF911F91AA
:1017D0000F9108951F920F920FB60F921124EF925E
:1017E000FF920F931F932F933F934F935F936F93AA
:1017F0007F938F939F93AF93BF93EF93FF9383B7A1
:1018000083BF00B600FCFDCF81B799270196AA27B8
:10181000BB27209190023091910240919202509109
:101820009302280F391F4A1F5B1F209390023093A9
:101830009102409392025093930278948FB7F89458
:10184000282F3327E22F91B782B746B7981711F0A8
:1018500041FF02C02FBFABC080919602882309F4DC
:1018600060C06FB7F89482B72091900230919102D6
:10187000409192025091930206B601FE0FC081B7CB
:1018800092B7280F311D411D511D2F5F3F4F4F4F04
:101890005F4F290F311D411D511D04C0280F311DFF
:1018A000411D511D862F99278FBFE0908902F0902E
:1018B0008A0200918B0210918C028091C702909154
:1018C000C802A091C902B091CA022E193F09400B6B
:1018D000510B281739074A075B0720F01092960230
:1018E00071E020C0A8019701280F391F4A1F5B1F14
:1018F0008091900290919102A0919202B0919302F6
:10190000281B390B4A0B5B0B273E3105410551055E
:1019100040F4822F223010F070E005C070E082E0C9
:1019200002C070E086EE682F615000B601FCFDCF6A
:1019300082B7681709F46F5F20919002309191028D
:101940004091920250919302DA01C9010196A11DC2
:10195000B11D860F911DA11DB11D82179307A4070C
:10196000B50710F4622F609561BFEFBF7723F9F0E0
:101970009FB7F8948091E8028F3F81F48091F8023C
:10198000882361F00FC01092E50206C0E091F802D2
:10199000FF27E851FD4F10821092F802892F9927F6
:1019A0008FBF05C08091E5028F3F81F7ECCFFF919B
:1019B000EF91BF91AF919F918F917F916F915F91C7
:1019C0004F913F912F911F910F91FF90EF900F90AA
:1019D0000FBE0F901F901895FF920F931F93CF93F8
:1019E000DF938FB7F894F82E80916602909167028A
:1019F000892B31F58FB7F894282F3327A22F8091A8
:101A00000201843009F0FFC18FEF80930201309111
:101A10001301332309F401C280E065E00E948D5078
:101A2000292F492F5527832F9927042E02C09595DA
:101A300087950A94E2F780FD7AC2822F8F5FEDCFFF
:101A4000109231028091FB02882311F0B79904C0F3
:101A50000E99C8C1882319F081508093FB0282E05F
:101A600090E0909367028093660241E040933102D8
:101A700020E030E080910201843011F421E030E078
:101A8000232B09F478C0C09860911A0270911B0250
:101A90008FB7F894482F55278FB7F894282F3327FE
:101AA00090E080917602882309F491E02FBF99237A
:101AB00009F0ACC04FBF8FE790E09093860280930F
:101AC00085026E9A8FE78FB9779BFECF8FB12FB7C4
:101AD000F894332710927D0210927C0270932D02AD
:101AE00060932C0281E090E09093950280939402A1
:101AF00010923302109232022FBF8FB18FB7F89439
:101B00009927E0917C02F0917D0200912C021091C6
:101B10002D026091320270913302409194025091F3
:101B200095029B01265F3F4F4217530708F49A0125
:101B30008FBFE801C60FD71FDF01A60FB71F2150C7
:101B4000304015C0309731F08C916E9A8FB9779BE9
:101B5000FECF04C06E9A1FB8779BFECF8FB10115E0
:101B6000110509F088836F5F7F4F219611966217E8
:101B7000730740F3ADC08FB7F894382F9FB7F89430
:101B800080917602882311F021E003C04093760211
:101B900020E0892F99278FBF222311F03FBFAAC0D1
:101BA00080910501882309F0F2C112C082E0809380
:101BB0001401109205016E98BA9ABB98B99AB89A16
:101BC0006C9AC0986F98709A6B986A9868986E9A99
:101BD00084E08093020180E03FBF882309F08AC03F
:101BE000C09860911A0270911B028FB7F894482F29
:101BF00055278FB7F894282F332790E080917602ED
:101C0000882309F491E02FBF992311F04FBFBDC184
:101C10004FBF8FE790E090938602809385026E9A83
:101C20008FE78FB9779BFECF8FB12FB7F89433270B
:101C300010927D0210927C0270932D0260932C0210
:101C400081E090E090939502809394021092330289
:101C5000109232022FBF8FB18FB7F8949927E0917D
:101C60007C02F0917D0200912C0210912D02609176
:101C700032027091330240919402509195029B017F
:101C8000265F3F4F4217530708F49A018FBFE801C0
:101C9000C60FD71FDF01A60FB71F2150304015C058
:101CA000309731F08C916E9A8FB9779BFECF04C03C
:101CB0006E9A1FB8779BFECF8FB10115110509F001
:101CC00088836F5F7F4F219611966217730740F3E9
:101CD0006F9A9FB7F894309729F0E60FF71F80812D
:101CE0008FB901C01FB87093330260933202892FFD
:101CF000992776C03FB7F8949FB7F8948091760201
:101D0000882311F021E004C081E08093760220E076
:101D1000892F99278FBF222309F05BC084E080932D
:101D2000020180910501882309F03EC19FB7F89414
:101D30008091F0028F3FD1F58091F802883009F050
:101D400039C134C088E026C0E091F802FF27E8518D
:101D5000FD4F88E028C06E98BA9ABB98B99AB89A95
:101D60006C9AC0986F98709A6B986A9868986E9AF7
:101D700081E08093140110928F029FB7F8948091B4
:101D8000F2028F3F99F48091F8028A3009F01EC167
:101D90000DC08AE08093E50207C0E091F802FF27BA
:101DA000E851FD4F8AE080838093F802892F9927BC
:101DB0008FBF14C0E0910401EE2381F00DC1109299
:101DC000030104C0FF27E450FD4F1082109204016C
:101DD00005C080911301806180931301832F99279F
:101DE0008FBFD3C081E090E090936702809366023A
:101DF0001092FB028FB7F894282F3327A22F8091DF
:101E00000201843011F02FBFC0C08FEF8093020118
:101E100030911301332309F079C08FB7F8949927D3
:101E2000109276028FBF80911301882309F0A8C019
:101E3000409102014F3F09F0A3C08FB7F894282FBB
:101E4000332790E080917602882309F491E02FBF38
:101E5000992309F495C081E08093280280911902AA
:101E6000882319F0109228028BC0809114018230CF
:101E700009F046C080910501882309F081C0809156
:101E8000030190E08F3F09F491E09923A1F58F3F82
:101E900019F42FEF30E00DC0282F3327F901E4505B
:101EA000FD4F8081809303018F3F11F44093040123
:101EB000408320938F0281E0809314019FB7F894B0
:101EC0008091F2028F3F99F48091F8028A3009F0F4
:101ED00089C00DC08AE08093E50207C0E091F80256
:101EE000FF27E851FD4F8AE080838093F802892F15
:101EF00099278FBF05C0409305011092140178C047
:101F000080911401882309F473C03AC080E065E031
:101F10000E948D50292F492F5527832F9927042E52
:101F200002C0959587950A94E2F780FF2BC0209315
:101F3000020181E090E002C0880F991F4A95E2F704
:101F400080953823309313019FB7F8948091F00265
:101F50008F3F99F48091F802883009F04EC00DC08F
:101F600088E08093E50207C0E091F802FF27E8517E
:101F7000FD4F88E080838093F802892F99278FBFD7
:101F8000AFBF03C0822F8F5FC2CFFFBE3CC0809126
:101F90001401882309F40ACE8FB7F8949927109278
:101FA00076028FBF81E018CE80911401882309F456
:101FB000D2CE06C08091E5028F3F09F0C5CEC2CED9
:101FC0008091FC028F3F09F009CFF4CE8091E502A9
:101FD0008F3F09F0E2CEDDCE809103018F3F09F003
:101FE000F1CEEDCE8091E5028F3F09F077CF72CF31
:101FF0006E981092FA02C09AC3CF8091E5028F3F8B
:1020000009F0B2CFADCFDF91CF911F910F91FF902B
:102010000895FF920F931F93CF93DF9380E88093EF
:102020002E02109231021092830210928E021092B0
:10203000FB02C09AC0988FB7F894482F55278FB7E6
:10204000F894282F332790E080917602882309F4B2
:1020500091E02FBF992311F04FBF07C04FBF6E9A79
:1020600088E08FB9779BFECF8FB18FB7F894482F58
:1020700055278FB7F894282F332790E08091760268
:10208000882309F491E02FBF992311F04FBF07C0B7
:102090004FBF6E9A88E08FB9779BFECF8FB1C09A01
:1020A0008FB7F894282F3327A22F80910201843014
:1020B00011F02FBFC0C08FEF809302013091130148
:1020C000332309F079C08FB7F894992710927602DC
:1020D0008FBF80911301882309F0A8C040910201AD
:1020E0004F3F09F0A3C08FB7F894282F332790E013
:1020F00080917602882309F491E02FBF992309F497
:1021000095C081E08093280280911902882319F0FC
:10211000109228028BC080911401823009F046C0D1
:1021200080910501882309F081C08091030190E02E
:102130008F3F09F491E09923A1F58F3F19F42FEF18
:1021400030E00DC0282F3327F901E450FD4F808186
:10215000809303018F3F11F4409304014083209347
:102160008F0281E0809314019FB7F8948091F2026E
:102170008F3F99F48091F8028A3009F04BC20DC06C
:102180008AE08093E50207C0E091F802FF27E8515A
:10219000FD4F8AE080838093F802892F99278FBFB3
:1021A00005C040930501109214013AC280911401B8
:1021B000882309F435C23AC080E065E00E948D5062
:1021C000292F492F5527832F9927042E02C0959533
:1021D00087950A94E2F780FF2BC02093020181E0EB
:1021E00090E002C0880F991F4A95E2F78095382346
:1021F000309313019FB7F8948091F0028F3F99F4C8
:102200008091F802883009F010C20DC088E08093F8
:10221000E50207C0E091F802FF27E851FD4F88E092
:1022200080838093F802892F99278FBFAFBF03C0A7
:10223000822F8F5FC2CF8FB7F894C82FDD27FC2E77
:102240008091660290916702892B29F484E00E94B4
:102250003C06CFBF1BC2109231028091FB02882343
:1022600011F0B79904C00E99C8C1882319F08150A4
:102270008093FB0282E090E0909367028093660275
:1022800041E04093310220E030E08091020184304F
:1022900011F421E030E0232B09F478C0C09860915C
:1022A0001A0270911B028FB7F894482F55278FB7E9
:1022B000F894282F332790E080917602882309F440
:1022C00091E02FBF992309F0ACC04FBF8FE790E09A
:1022D00090938602809385026E9A8FE78FB9779BE1
:1022E000FECF8FB12FB7F894332710927D02109252
:1022F0007C0270932D0260932C0281E090E0909319
:1023000095028093940210923302109232022FBFF2
:102310008FB18FB7F8949927E0917C02F0917D02FC
:1023200000912C0210912D026091320270913302C3
:1023300040919402509195029B01265F3F4F4217B6
:10234000530708F49A018FBFE801C60FD71FDF01BA
:10235000A60FB71F2150304015C0309731F08C9137
:102360006E9A8FB9779BFECF04C06E9A1FB8779B89
:10237000FECF8FB10115110509F088836F5F7F4F84
:10238000219611966217730740F3ADC08FB7F8948A
:10239000382F9FB7F89480917602882311F021E0BE
:1023A00003C04093760220E0892F99278FBF222314
:1023B00011F03FBFAAC080910501882309F03BC1FD
:1023C00012C082E080931401109205016E98BA9AAF
:1023D000BB98B99AB89A6C9AC0986F98709A6B9893
:1023E0006A9868986E9A84E08093020180E03FBF0B
:1023F000882309F08AC0C09860911A0270911B026C
:102400008FB7F894482F55278FB7F894282F332784
:1024100090E080917602882309F491E02FBF992300
:1024200011F04FBFF5C04FBF8FE790E09093860249
:10243000809385026E9A8FE78FB9779BFECF8FB11D
:102440002FB7F894332710927D0210927C0270937C
:102450002D0260932C0281E090E09093950280938E
:10246000940210923302109232022FBF8FB18FB7B5
:10247000F8949927E0917C02F0917D0200912C0262
:1024800010912D02609132027091330240919402BA
:10249000509195029B01265F3F4F4217530708F466
:1024A0009A018FBFE801C60FD71FDF01A60FB71F24
:1024B0002150304015C0309731F08C916E9A8FB911
:1024C000779BFECF04C06E9A1FB8779BFECF8FB16B
:1024D0000115110509F088836F5F7F4F21961196D2
:1024E0006217730740F36F9A9FB7F894309729F0FB
:1024F000E60FF71F80818FB901C01FB870933302B8
:1025000060933202892F992776C03FB7F8949FB71E
:10251000F89480917602882311F021E004C081E0D4
:102520008093760220E0892F99278FBF222309F01C
:102530005BC084E08093020180910501882309F04B
:1025400087C09FB7F8948091F0028F3FD1F58091BA
:10255000F802883009F082C034C088E026C0E091DB
:10256000F802FF27E851FD4F88E028C06E98BA9A1C
:10257000BB98B99AB89A6C9AC0986F98709A6B98F1
:102580006A9868986E9A81E08093140110928F0285
:102590009FB7F8948091F2028F3F99F48091F802EE
:1025A0008A3009F067C00DC08AE08093E50207C059
:1025B000E091F802FF27E851FD4F8AE08083809385
:1025C000F802892F99278FBF14C0E0910401EE23F0
:1025D00081F056C01092030104C0FF27E450FD4F64
:1025E00010821092040105C08091130180618093D4
:1025F0001301832F99278FBF0BC081E090E0909348
:102600006702809366021092FB0284E00E943C06FF
:10261000FFBE3CC08091E5028F3F09F0B5CDB0CD43
:102620006E981092FA02C09A01CE8091E5028F3F17
:1026300009F0F0CDEBCD80911401882309F4C1CECF
:102640008FB7F8949927109276028FBF81E0CFCE92
:1026500080911401882309F489CF06C08091E50296
:102660008F3F09F07CCF79CF8091FC028F3F09F03A
:10267000C0CFABCF8091E5028F3F09F099CF94CFC7
:10268000809103018F3F09F0A8CFA4CFDF91CF91B4
:102690001F910F91FF9008952F923F924F925F925A
:1026A0006F927F928F929F92AF92BF92CF92DF9262
:1026B000EF92FF920F931F93CF93DF93CDB7DEB7C7
:1026C00029970FB6F894DEBF0FBECDBF8FB7F89431
:1026D000B82F8091150190911601099709F0EEC06D
:1026E0008FB7F894482F55278FB7F894282F3327A2
:1026F00090E080917602882309F491E02FBF99231E
:1027000011F04FBF07C04FBF6E9A89E08FB9779B1A
:10271000FECF8FB18FB7F894282F3327A22F809147
:102720000201833011F02FBFC0C08FEF80930201F0
:1027300030911301332309F079C08FB7F8949927AA
:10274000109276028FBF80911301882309F0A8C0F0
:10275000409102014F3F09F0A3C08FB7F894282F92
:10276000332790E080917602882309F491E02FBF0F
:10277000992309F495C081E0809328028091190281
:10278000882319F0109228028BC0809114018230A6
:1027900009F046C080910501882309F081C080912D
:1027A000030190E08F3F09F491E09923A1F58F3F59
:1027B00019F42FEF30E00DC0282F3327F901E45032
:1027C000FD4F8081809303018F3F11F440930401FA
:1027D000408320938F0281E0809314019FB7F89487
:1027E0008091F2028F3F99F48091F8028A3009F0CB
:1027F000B7C30DC08AE08093E50207C0E091F802FC
:10280000FF27E851FD4F8AE080838093F802892FEB
:1028100099278FBF05C04093050110921401A6C3EC
:1028200080911401882309F4A1C33AC080E065E0D7
:102830000E948D50292F492F5527832F9927042E29
:1028400002C0959587950A94E2F780FF2BC02093EC
:10285000020181E090E002C0880F991F4A95E2F7DB
:1028600080953823309313019FB7F8948091F0023C
:102870008F3F99F48091F802883009F07CC30DC035
:1028800088E08093E50207C0E091F802FF27E85155
:10289000FD4F88E080838093F802892F99278FBFAE
:1028A000AFBF03C0822F8F5FC2CFC09A81E090E09C
:1028B0009093160180931501BFBF78C3C098809193
:1028C0007A028823C1F08FB7F894482F55278FB725
:1028D000F894282F332790E080917602882309F41A
:1028E00091E02FBF9923C1F44FBF6E9A85E08FB955
:1028F000779BFECF1BC08FB7F894482F55278FB713
:10290000F894282F332790E080917602882309F4E9
:1029100091E02FBF992321F04FBF80E090E008C0E5
:102920004FBF6E9A84E08FB9779BFECF8FB1992706
:1029300083FD27C38FB7F894482F55278FB7F89496
:10294000282F332790E080917602882309F491E0C4
:102950002FBF992311F04FBF14C34FBF6E9A1FB8FA
:10296000779BFECF7B9B0DC385E090E020E09093AA
:10297000160180931501C09ABFBF222309F40CC22F
:10298000109284028FB7F894282F3327A22F8091BA
:102990000201833011F02FBFC0C08FEF809302017E
:1029A00030911301332309F079C08FB7F894992738
:1029B000109276028FBF80911301882309F0A8C07E
:1029C000409102014F3F09F0A3C08FB7F894282F20
:1029D000332790E080917602882309F491E02FBF9D
:1029E000992309F495C081E080932802809119020F
:1029F000882319F0109228028BC080911401823034
:102A000009F046C080910501882309F081C08091BA
:102A1000030190E08F3F09F491E09923A1F58F3FE6
:102A200019F42FEF30E00DC0282F3327F901E450BF
:102A3000FD4F8081809303018F3F11F44093040187
:102A4000408320938F0281E0809314019FB7F89414
:102A50008091F2028F3F99F48091F8028A3009F058
:102A600094C20DC08AE08093E50207C0E091F802AD
:102A7000FF27E851FD4F8AE080838093F802892F79
:102A800099278FBF05C0409305011092140183C29E
:102A900080911401882309F47EC23AC080E065E089
:102AA0000E948D50292F492F5527832F9927042EB7
:102AB00002C0959587950A94E2F780FF2BC020937A
:102AC000020181E090E002C0880F991F4A95E2F769
:102AD00080953823309313019FB7F8948091F002CA
:102AE0008F3F99F48091F802883009F059C20DC0E7
:102AF00088E08093E50207C0E091F802FF27E851E3
:102B0000FD4F88E080838093F802892F99278FBF3B
:102B1000AFBF03C0822F8F5FC2CF2FB72983F89436
:102B2000209068023090690240906A0250906B02D7
:102B30006624772488247EE4A72E63E8B62ECC246E
:102B4000DD24EE24FF2400E010E0222D332D442D5F
:102B5000552D662D772D882D90E00E94824E2A8378
:102B60003B834C835D836E837F8388879987822E26
:102B7000932EA42EB52E2401350100E20E94804F31
:102B8000A22EB32EC42ED52ED301C201B695A79581
:102B9000979587958A0D9B1DAC1DBD1DB7FF04C081
:102BA000BF770196A11DB11D8093680290936902C1
:102BB000A0936A02B0936B0266E470E00E949950A1
:102BC000FC013B96F0937F02E0937E028FB7F8946E
:102BD00060912F02709130022CB53DB506B602FE11
:102BE00004C06F5F7F4F2CB53DB599278FBFDFB60F
:102BF000F894CB01AA27BB27DC0199278827442713
:102C00005527822B932BA42BB52B80936D02909389
:102C10006E02A0936F02B0937002CF01AA27BB2768
:102C20008093DE029093DF02A093E002B093E10272
:102C30004FB7F89480912F02909130022CB53DB59A
:102C400006B602FE03C001962CB53DB5AA27BB27E8
:102C50008C01FF24EE24C901AA27BB27E82AF92A00
:102C60000A2B1B2B842F99278FBF80916D02909187
:102C70006E02A0916F02B09170022091DE0230913D
:102C8000DF024091E0025091E102280F391F4A1FF4
:102C90005B1FE816F9060A071B0730F028173907EB
:102CA0004A075B0758F005C0281739074A075B0732
:102CB000E0F5E216F30604071507B8F5DA01C901D5
:102CC0008E199F09A00BB10B813060E8960760E078
:102CD000A60760E0B60768F120E030E840E050E089
:102CE000E20EF31E041F151FE0926D02F0926E02B9
:102CF00000936F021093700220E030E84FEF5FEF17
:102D0000E20EF31E041F151F80509048A040B040F3
:102D10008093DE029093DF02A093E002B093E10281
:102D200080E090E8A0E0B0E014C080E090E0A0E097
:102D3000B0E020936D0230936E0240936F02509387
:102D400070021092DE021092DF021092E0021092E6
:102D5000E102BC012CB53DB5C9018E199F0903964E
:102D60008617970718F0C901039603C0C701860F9D
:102D7000971F009711F481E090E001979BBD8ABDF9
:102D800080E186BF87B7806187BF8D2D99278FBF70
:102D90003981832F9927E2C08FB7F89460912F0271
:102DA000709130022CB53DB506B602FE04C06F5FCF
:102DB0007F4F2CB53DB599278FBFEFB7F894CB0166
:102DC000AA27BB27DC019927882744275527822B70
:102DD000932BA42BB52B80936D0290936E02A0933E
:102DE0006F02B093700280E491E0A0E0B0E08093C5
:102DF000DE029093DF02A093E002B093E1024FB7AE
:102E0000F89480912F02909130022CB53DB506B612
:102E100002FE03C001962CB53DB5AA27BB278C0145
:102E2000FF24EE24C901AA27BB27E82AF92A0A2B86
:102E30001B2B842F99278FBF80916D0290916E027A
:102E4000A0916F02B09170022091DE023091DF02FA
:102E50004091E0025091E102280F391F4A1F5B1F89
:102E6000E816F9060A071B0730F0281739074A0742
:102E70005B0758F005C0281739074A075B07E0F5DC
:102E8000E216F30604071507B8F5DA01C9018E1931
:102E90009F09A00BB10B813060E8960760E0A607A0
:102EA00060E0B60768F120E030E840E050E0E20E74
:102EB000F31E041F151FE0926D02F0926E02009344
:102EC0006F021093700220E030E84FEF5FEFE20EE8
:102ED000F31E041F151F80509048A040B0408093FF
:102EE000DE029093DF02A093E002B093E10280E063
:102EF00090E8A0E0B0E014C080E090E0A0E0B0E096
:102F000020936D0230936E0240936F0250937002D3
:102F10001092DE021092DF021092E0021092E102A3
:102F2000BC012CB53DB5C9018E199F0903968617C2
:102F3000970718F0C901039603C0C701860F971FB2
:102F4000009711F481E090E001979BBD8ABD80E17C
:102F500086BF87B7806187BF8E2F99278FBF26C016
:102F60008091E5028F3F09F049CC44CC6E981092D5
:102F7000FA02C09A95CC8091E5028F3F09F084CC8B
:102F80007FCC83E090E021E0F2CC8091E5028F3F9E
:102F900009F06CCD67CD6E981092FA02C09AB8CD48
:102FA0008091E5028F3F09F0A7CDA2CD29960FB6FB
:102FB000F894DEBF0FBECDBFDF91CF911F910F916F
:102FC000FF90EF90DF90CF90BF90AF909F908F9049
:102FD0007F906F905F904F903F902F9008951F9239
:102FE0000F920FB60F9211242F923F924F925F9241
:102FF0006F927F928F929F92AF92BF92CF92DF9209
:10300000EF92FF920F931F932F933F934F935F93F2
:103010006F937F938F939F93AF93BF93EF93FF93A0
:10302000CF93DF93CDB7DEB72897DEBFCDBF2FB1EB
:10303000E0912C02F0912D02309739F0809132020C
:1030400090913302E80FF91F208380913202909112
:103050003302019690933302809332026F9820914D
:103060009402309195028217930708F043C08FB7FE
:10307000F8949927E0917C02F0917D0200912C0256
:1030800010912D02609132027091330240919402AE
:10309000509195029B01265F3F4F4217530708F45A
:1030A0009A018FBFA801460F571F7F01E60EF71E3A
:1030B000215030401AC0309739F0D7018C916E9A68
:1030C0008FB9779BFECF04C06E9A1FB8779BFECF57
:1030D0008FB10115110511F0DA018C936F5F7F4FED
:1030E0004F5F5F4F0894E11CF11C6217730718F3E0
:1030F0000C94DF2000912C0210912D0210922D02D1
:1031000010922C0210927D0210927C021092950275
:103110001092940210923302109232028FB1809179
:1031200085029091860286FD02C00C9433228F7B2B
:103130008F3311F00C943524E0901A02F0901B02AA
:10314000F7015081509329028091660290916702A5
:103150008330910511F40C94AB1F8430910511F468
:103160000C940521029711F00C942C2283E090E03E
:10317000909367028093660240912E02852F9927D3
:103180000196242F3327281739070CF0A3C180E8B4
:1031900080932E02109231021092830210928E02BE
:1031A0001092FB02C09AC0988FB7F894482F552709
:1031B0008FB7F894282F332790E0809176028823E8
:1031C00009F491E02FBF992311F04FBF07C04FBF03
:1031D0006E9A88E08FB9779BFECF8FB18FB7F89446
:1031E000482F55278FB7F894282F332790E08091E8
:1031F0007602882309F491E02FBF992311F04FBF85
:1032000007C04FBF6E9A88E08FB9779BFECF8FB112
:10321000C09A84E00E943C068FB7F894082F1127CB
:10322000F02E8091660290916702892B09F4A5C463
:10323000109231028091FB02882311F0B79904C0EB
:103240000E997CC6882319F081508093FB0282E09E
:1032500090E0909367028093660241E040933102D0
:1032600020E030E080910201843011F421E030E070
:10327000232B09F47DC0C09860911A0270911B0243
:103280008FB7F894482F55278FB7F894282F3327F6
:1032900090E080917602882309F491E02FBF992372
:1032A00009F05BC54FBF8FE790E090938602809353
:1032B00085026E9A8FE78FB9779BFECF8FB12FB7BC
:1032C000F894332710927D0210927C0270932D02A5
:1032D00060932C0281E090E0909395028093940299
:1032E00010923302109232022FBF8FB18FB7F89431
:1032F0009927E0917C02F0917D0200912C021091BF
:103300002D026091320270913302409194025091EB
:1033100095029B01265F3F4F4217530708F49A011D
:103320008FBFA801460F571F6F01C60ED71E215031
:1033300030401AC0309739F0D6018C916E9A8FB90F
:10334000779BFECF04C06E9A1FB8779BFECF8FB1DC
:103350000115110511F0DA018C936F5F7F4F4F5FFC
:103360005F4F0894C11CD11C6217730718F35CC52A
:103370008FB7F894382F9FB7F894809176028823FE
:1033800011F021E003C04093760220E0892F9927B5
:103390008FBF222309F0A9C480910501882311F071
:1033A0000C94BB2312C082E080931401109205019B
:1033B0006E98BA9ABB98B99AB89A6C9AC0986F9856
:1033C000709A6B986A9868986E9A84E0809302016C
:1033D00080E03FBF882309F039C5C09860911A0288
:1033E00070911B028FB7F894482F55278FB7F89428
:1033F000282F332790E080917602882309F491E00A
:103400002FBF992309F0A9C44FBF8FE790E0909395
:103410008602809385026E9A8FE78FB9779BFECFE5
:103420008FB12FB7F894332710927D0210927C024F
:1034300070932D0260932C0281E090E090939502AE
:103440008093940210923302109232022FBF8FB1F8
:103450008FB7F8949927E0917C02F0917D0200915A
:103460002C0210912D026091320270913302409132
:103470009402509195029B01265F3F4F42175307DC
:1034800008F49A018FBFA801460F571F6F01C60E9F
:10349000D71E215030401AC0309739F0D6018C9198
:1034A0006E9A8FB9779BFECF04C06E9A1FB8779B38
:1034B000FECF8FB10115110511F0DA018C936F5F0A
:1034C0007F4F4F5F5F4F0894C11CD11C6217730779
:1034D00018F3AAC4B79906C00E9904C0451B415001
:1034E00040932E0240912902493208F0F6C244234B
:1034F00009F4C1C0B7016F5F7F4F483008F459C06D
:103500002FB7F894332710927D0210927C027093AB
:103510002D0260932C0287E090E0909395028093B7
:10352000940210923302109232022FBF8FB18FB7E4
:10353000F8949927E0917C02F0917D0200912C0291
:1035400010912D02609132027091330240919402E9
:10355000509195029B01265F3F4F4217530708F495
:103560009A018FBFA801460F571F7F01E60EF71E75
:10357000215030401AC0309739F0D7018C916E9AA3
:103580008FB9779BFECF04C06E9A1FB8779BFECF92
:103590008FB10115110511F0DA018C936F5F7F4F28
:1035A0004F5F5F4F0894E11CF11C6217730718F31B
:1035B00006C684E090E090936702809366022FB77E
:1035C000F894332710927D0210927C0270932D02A2
:1035D00060932C02842F99279093950280939402F4
:1035E00010923302109232022FBF442309F4F7C520
:1035F0008FB18FB7F8949927E0917C02F0917D020A
:1036000000912C0210912D026091320270913302D0
:1036100040919402509195029B01265F3F4F4217C3
:10362000530708F49A018FBFA801460F571F7F0167
:10363000E60EF71E215030401AC0309739F0D701FE
:103640008C916E9A8FB9779BFECF04C06E9A1FB88B
:10365000779BFECF8FB10115110511F0DA018C9324
:103660006F5F7F4F4F5F5F4F0894E11CF11C621743
:10367000730718F3A4C510923102C09A84E00E9427
:103680003C068FB7F894F82E8091660290916702FD
:10369000892B09F0D1C08FB7F894282F3327A22F98
:1036A00080910201843011F02FBF53C48FEF8093BB
:1036B000020130911301332309F07CC08FB7F894D5
:1036C0009927109276028FBF80911301882309F009
:1036D000AEC0409102014F3F09F0A9C08FB7F894E6
:1036E000282F332790E080917602882309F491E017
:1036F0002FBF992309F49BC081E080932802809119
:103700001902882319F01092280291C080911401A7
:10371000823009F048C080910501882309F087C0F4
:103720008091030190E08F3F09F491E09923A9F57E
:103730008F3F19F42FEF30E00DC0282F3327F90108
:10374000E450FD4F8081809303018F3F11F440933B
:103750000401408320938F0281E0809314019FB77E
:10376000F8948091F2028F3FA1F48091F8028A30A0
:1037700011F00C94CA230DC08AE08093E50207C0C3
:10378000E091F802FF27E851FD4F8AE080838093A3
:10379000F802892F99278FBF06C040930501109228
:1037A00014010C94D22380911401882311F40C94F9
:1037B000D2233DC080E065E00E948D50292F492F23
:1037C0005527832F9927042E02C0959587950A9433
:1037D000E2F780FF2EC02093020181E090E002C05A
:1037E000880F991F4A95E2F78095209113012823AD
:1037F000209313019FB7F8948091F0028F3FA1F4BA
:103800008091F802883011F00C94D8230DC088E024
:103810008093E50207C0E091F802FF27E851FD4FD1
:1038200088E080838093F802892F99278FBFAFBFEC
:1038300090C3822F8F5FBFCF109231028091FB0225
:10384000882311F0B79904C00E9978C3882319F022
:1038500081508093FB0282E090E090936702809316
:10386000660241E04093310220E030E080910201A5
:10387000843011F421E030E0232B09F47DC0C0989E
:1038800060911A0270911B028FB7F894482F552748
:103890008FB7F894282F332790E080917602882301
:1038A00009F491E02FBF992309F057C24FBF8FE76A
:1038B00090E090938602809385026E9A8FE78FB98D
:1038C000779BFECF8FB12FB7F894332710927D02EC
:1038D00010927C0270932D0260932C0281E090E0A4
:1038E00090939502809394021092330210923202C8
:1038F0002FBF8FB18FB7F8949927E0917C02F09198
:103900007D0200912C0210912D0260913202709183
:10391000330240919402509195029B01265F3F4FE4
:103920004217530708F49A018FBFA801460F571F8B
:103930006F01C60ED71E215030401AC0309739F0A3
:10394000D6018C916E9A8FB9779BFECF04C06E9A88
:103950001FB8779BFECF8FB10115110511F0DA0169
:103960008C936F5F7F4F4F5F5F4F0894C11CD11CDA
:103970006217730718F358C28FB7F894382F9FB7A0
:10398000F89480917602882311F021E003C04093DF
:10399000760220E0892F99278FBF222309F0A5C145
:1039A00080910501882309F00BC712C082E0809343
:1039B0001401109205016E98BA9ABB98B99AB89AF8
:1039C0006C9AC0986F98709A6B986A9868986E9A7B
:1039D00084E08093020180E03FBF882309F036C273
:1039E000C09860911A0270911B028FB7F894482F0B
:1039F00055278FB7F894282F332790E080917602CF
:103A0000882309F491E02FBF992309F0A6C14FBF85
:103A10008FE790E090938602809385026E9A8FE7FD
:103A20008FB9779BFECF8FB12FB7F89433271092C1
:103A30007D0210927C0270932D0260932C0281E033
:103A400090E090939502809394021092330210922A
:103A500032022FBF8FB18FB7F8949927E0917C0283
:103A6000F0917D0200912C0210912D0260913202A2
:103A70007091330240919402509195029B01265F10
:103A80003F4F4217530708F49A018FBFA801460F12
:103A9000571F6F01C60ED71E215030401AC03097F5
:103AA00039F0D6018C916E9A8FB9779BFECF04C006
:103AB0006E9A1FB8779BFECF8FB10115110511F0DB
:103AC000DA018C936F5F7F4F4F5F5F4F0894C11C8B
:103AD000D11C6217730718F3A7C180E880932E02E8
:103AE000109231021092830210928E021092FB0209
:103AF000C09AC0988FB7F894482F55278FB7F8947D
:103B0000282F332790E080917602882309F491E0F2
:103B10002FBF992311F04FBF07C04FBF6E9A88E0A7
:103B20008FB9779BFECF8FB18FB7F894482F552769
:103B30008FB7F894282F332790E08091760288235E
:103B400009F491E02FBF992311F04FBF07C04FBF79
:103B50006E9A88E08FB9779BFECF8FB1C09A84E0D0
:103B60000E943C068FB7F894082F1127F02E809101
:103B7000660290916702892B29F484E00E943C063A
:103B80000FBF73C6109231028091FB02882311F09F
:103B9000B79904C00E99D2C1882319F0815080933F
:103BA000FB0282E090E0909367028093660241E01E
:103BB0004093310220E030E080910201843011F422
:103BC00021E030E0232B09F47DC0C09860911A02F7
:103BD00070911B028FB7F894482F55278FB7F89430
:103BE000282F332790E080917602882309F491E012
:103BF0002FBF992309F0B1C04FBF8FE790E090939A
:103C00008602809385026E9A8FE78FB9779BFECFED
:103C10008FB12FB7F894332710927D0210927C0257
:103C200070932D0260932C0281E090E090939502B6
:103C30008093940210923302109232022FBF8FB100
:103C40008FB7F8949927E0917C02F0917D02009162
:103C50002C0210912D02609132027091330240913A
:103C60009402509195029B01265F3F4F42175307E4
:103C700008F49A018FBFA801460F571F6F01C60EA7
:103C8000D71E215030401AC0309739F0D6018C91A0
:103C90006E9A8FB9779BFECF04C06E9A1FB8779B40
:103CA000FECF8FB10115110511F0DA018C936F5F12
:103CB0007F4F4F5F5F4F0894C11CD11C6217730781
:103CC00018F3B2C08FB7F894382F9FB7F89480914B
:103CD0007602882311F021E003C04093760220E0B1
:103CE000892F99278FBF222311F03FBFAFC080914A
:103CF0000501882309F071C512C082E08093140188
:103D0000109205016E98BA9ABB98B99AB89A6C9AB3
:103D1000C0986F98709A6B986A9868986E9A84E0C9
:103D20008093020180E03FBF882309F08FC0C098D4
:103D300060911A0270911B028FB7F894482F552793
:103D40008FB7F894282F332790E08091760288234C
:103D500009F491E02FBF992311F04FBFFAC04FBF74
:103D60008FE790E090938602809385026E9A8FE7AA
:103D70008FB9779BFECF8FB12FB7F894332710926E
:103D80007D0210927C0270932D0260932C0281E0E0
:103D900090E09093950280939402109233021092D7
:103DA00032022FBF8FB18FB7F8949927E0917C0230
:103DB000F0917D0200912C0210912D02609132024F
:103DC0007091330240919402509195029B01265FBD
:103DD0003F4F4217530708F49A018FBFA801460FBF
:103DE000571F6F01C60ED71E215030401AC03097A2
:103DF00039F0D6018C916E9A8FB9779BFECF04C0B3
:103E00006E9A1FB8779BFECF8FB10115110511F087
:103E1000DA018C936F5F7F4F4F5F5F4F0894C11C37
:103E2000D11C6217730718F36F9A9FB7F8943097F5
:103E300029F0E60FF71F80818FB901C01FB870937A
:103E4000330260933202892F992776C03FB7F894E6
:103E50009FB7F89480917602882311F021E004C086
:103E600081E08093760220E0892F99278FBF22235B
:103E700009F05BC084E080930201809105018823F2
:103E800009F0B8C49FB7F8948091F0028F3FD1F544
:103E90008091F802883009F0B3C434C088E026C0AD
:103EA000E091F802FF27E851FD4F88E028C06E98A6
:103EB000BA9ABB98B99AB89A6C9AC0986F98709A47
:103EC0006B986A9868986E9A81E0809314011092BA
:103ED0008F029FB7F8948091F2028F3F99F48091FE
:103EE000F8028A3009F098C40DC08AE08093E50298
:103EF00007C0E091F802FF27E851FD4F8AE0808378
:103F00008093F802892F99278FBF14C0E091040194
:103F1000EE2381F087C41092030104C0FF27E45010
:103F2000FD4F10821092040105C080911301806141
:103F300080931301832F99278FBF0BC081E090E0FE
:103F400090936702809366021092FB0284E00E94C5
:103F50003C06FFBE8AC484E090E0909367028093A1
:103F6000660280916C02882309F4C7C080917502B3
:103F7000882309F0C2C0F701828121819927582F37
:103F800044273327422B532B45FFB7C08781268117
:103F90009927982F88273327822B932B2091E6028D
:103FA0003091E7028217930709F0A7C0477050705D
:103FB0004130510509F0A1C0C09AC0988FB7F8945C
:103FC000482F55278FB7F894282F332790E08091FA
:103FD0007602882309F491E02FBF992311F04FBF97
:103FE00007C04FBF6E9A8AE08FB9779BFECF8FB123
:103FF000C09AC098409129028FB7F894682F77270C
:104000008FB7F894282F332790E080917602882389
:1040100009F491E02FBF992311F06FBF26C46FBF41
:104020008FE790E090938602809385026E9A8FE7E7
:104030008FB9779BFECF47508FB12FB7F8943327B6
:1040400010927D0210927C0288E090E0E80EF91E4A
:10405000F0922D02E0922C02842F992790939502E2
:104060008093940210923302109232022FBF4423A5
:1040700009F4B5C08FB18FB7F8949927E0917C020D
:10408000F0917D0200912C0210912D02609132027C
:104090007091330240919402509195029B01265FEA
:1040A0003F4F4217530708F49A018FBFA801460FEC
:1040B000571F7F01E60EF71E215030401AC030977F
:1040C00039F0D7018C916E9A8FB9779BFECF04C0DF
:1040D0006E9A1FB8779BFECF8FB10115110511F0B5
:1040E000DA018C936F5F7F4F4F5F5F4F0894E11C45
:1040F000F11C6217730718F362C040912902475000
:104100002FB7F894332710927D0210927C02E8E0DA
:10411000F0E0EE0EFF1EF0922D02E0922C02842FB2
:1041200099279093950280939402109233021092F3
:1041300032022FBF442309F452C08FB18FB7F894D5
:104140009927E0917C02F0917D0200912C02109160
:104150002D0260913202709133024091940250918D
:1041600095029B01265F3F4F4217530708F49A01BF
:104170008FBFA801460F571F7F01E60EF71E215083
:1041800030401AC0309739F0D7018C916E9A8FB9B0
:10419000779BFECF04C06E9A1FB8779BFECF8FB17E
:1041A0000115110511F0DA018C936F5F7F4F4F5F9E
:1041B0005F4F0894E11CF11C6217730718F36F9AA4
:1041C0009FB7F894309729F0E60FF71F80818FB9D9
:1041D00001C01FB8709333026093320237C19FB79A
:1041E000F8948091F1028F3F09F030C18091F8027C
:1041F000893009F01DC32AC189E01CC1E091F80291
:10420000FF27E851FD4F89E01EC1C09A8091FB0253
:10421000882319F484E00E943C0680918E02882352
:1042200011F1809129028B3010F1E0918302FF2778
:10423000EE0FFF1FE350FD4F80819181F70185A7AD
:10424000892F992784A7809183029927019668E096
:1042500070E00E94AD508093830280918E02815065
:1042600080938E0204C08FEFF70185A784A7809109
:104270002902F701E80FF11D808187FFEAC0012BB9
:1042800009F4E7C0F7018181877020911A0230910B
:104290001B02823009F0BFC0A0917302B09174027A
:1042A0008091150190911601079709F0D2C0FD0188
:1042B0009381F9018381981709F0CBC087B78F7E6E
:1042C00087BF808151E0FD0153A7280F311DF901FF
:1042D00082919F012F5F3F4FFD0180A7F9018081EF
:1042E0008F77FD0181A781E090E090931601809384
:1042F00015011092190280911301882309F06CC0F6
:10430000409102014F3F09F067C08FB7F894282F02
:10431000332790E080917602882309F491E02FBF43
:10432000992309F459C050932802809119028823D7
:1043300019F01092280250C080911401823009F0C7
:1043400046C080910501882309F046C08091030191
:1043500090E08F3F09F491E09923A1F58F3F19F484
:104360002FEF30E00DC0282F3327F901E450FD4F27
:104370008081809303018F3F11F4409304014083B7
:1043800020938F0281E0809314019FB7F89480916D
:10439000F2028F3F99F48091F8028A3009F04EC200
:1043A0000DC08AE08093E50207C0E091F802FF2784
:1043B000E851FD4F8AE080838093F802892F992786
:1043C0008FBF05C040930501109214013DC280913A
:1043D0001401882309F438C210920F019FB7F89492
:1043E0008091EC028F3F99F48091F802843009F0BB
:1043F00030C20DC084E08093E50207C0E091F8026E
:10440000FF27E851FD4F84E080838093F802892FD5
:1044100099278FBF1EC08130E1F49FB7F894809137
:10442000F3028F3F99F48091F8028B3009F017C2A4
:104430000DC08BE08093E50207C0E091F802FF27F2
:10444000E851FD4F8BE080838093F802892F9927F4
:1044500090C10E94EC0C09C210923102C09A84E013
:104460000E943C0602C28E3309F0FFC1C09A8091BF
:10447000150190911601089731F5C0988FB7F894FF
:10448000482F55278FB7F894282F332790E0809135
:104490007602882309F491E02FBF992311F04FBFD2
:1044A00007C04FBF6E9A89E08FB9779BFECF8FB15F
:1044B000C09A83E00E943C0681E090E09093160150
:1044C00080931501D2C180917A02882349F484E057
:1044D00090E090931601809315010E944C13C5C182
:1044E00083E00E943C068091150190911601089787
:1044F00019F48AE090E002C083E090E09093160106
:1045000080931501209068023090690240906A0201
:1045100050906B026624772488249EE4A92E83E8B9
:10452000B82ECC24DD24EE24FF2400E010E0222D60
:10453000332D442D552D662D772D882D90E00E942A
:10454000824E29833A834B835C836D837E838F8382
:104550009887822E932EA42EB52E2401350100E2D9
:104560000E94804FA22EB32EC42ED52ED301C2019D
:10457000B695A795979587958A0D9B1DAC1DBD1D7A
:10458000B7FF04C0BF770196A11DB11D80936802DB
:1045900090936902A0936A02B0936B0266E371E0A4
:1045A0000E949950FC013B96F0937202E0937102D5
:1045B0008FB7F89460912F02709130022CB53DB501
:1045C00006B602FE04C06F5F7F4F2CB53DB599273C
:1045D0008FBFDFB6F894CB01AA27BB27DC01992750
:1045E000882744275527822B932BA42BB52B809308
:1045F0006D0290936E02A0936F02B0937002CF0190
:10460000AA27BB278093DE029093DF02A093E002EB
:10461000B093E1024FB7F89480912F02909130024D
:104620002CB53DB506B602FE03C001962CB53DB5CE
:10463000AA27BB278C01FF24EE24C901AA27BB2788
:10464000E82AF92A0A2B1B2B842F99278FBF8091E8
:104650006D0290916E02A0916F02B0917002209154
:10466000DE023091DF024091E0025091E102280F1A
:10467000391F4A1F5B1FE816F9060A071B0730F0AF
:10468000281739074A075B0758F005C0281739076C
:104690004A075B07E0F5E216F30604071507B8F5CD
:1046A000DA01C9018E199F09A00BB10B8130F0E826
:1046B0009F07F0E0AF07F0E0BF0768F120E030E8C7
:1046C00040E050E0E20EF31E041F151FE0926D0261
:1046D000F0926E0200936F021093700220E030E8B7
:1046E0004FEF5FEFE20EF31E041F151F805090483E
:1046F000A040B0408093DE029093DF02A093E002DE
:10470000B093E10280E090E8A0E0B0E014C080E067
:1047100090E0A0E0B0E020936D0230936E024093F1
:104720006F02509370021092DE021092DF0210921C
:10473000E0021092E102BC012CB53DB5C9018E1911
:104740009F0903968617970718F0C901039603C0BF
:10475000C701860F971F009711F481E090E0019741
:104760009BBD8ABD80E186BF87B7806187BF8D2DE5
:1047700099278FBF7AC080911401882311F40C947B
:10478000D3198FB7F8949927109276028FBF81E0E2
:104790000C94E9198091E5028F3F11F00C94C01B35
:1047A0000C94BC1B6E981092FA02C09A0C94171CC1
:1047B0008091E5028F3F11F00C940B1C0C94071CA8
:1047C00080911401882309F4F1C88FB7F8949927D0
:1047D000109276028FBF81E0FFC880911401882378
:1047E00009F48BCA8FB7F8949927109276028FBF7D
:1047F00081E099CA80911401882309F458CB06C03E
:104800008091E5028F3F09F04BCB48CB8091FC02B1
:104810008F3F09F08FCB7ACB8091E5028F3F09F073
:1048200068CB63CB809103018F3F09F077CB73CBCB
:104830008091E5028F3F09F0E1CCDECC8091E5026A
:104840008F3F09F0B2CDADCD6E981092FA02C09AAA
:10485000C3CD8091E5028F3F09F0D0CDCBCD8091C3
:10486000E5028F3F09F0E9CDE4CD2896F894DEBF4C
:10487000CDBFDF91CF91FF91EF91BF91AF919F910C
:104880008F917F916F915F914F913F912F911F91E8
:104890000F91FF90EF90DF90CF90BF90AF909F90DF
:1048A0008F907F906F905F904F903F902F900F90E0
:1048B0000FBE0F901F90189578941F920F920FB60D
:1048C0000F921124DF92EF92FF920F931F932F9379
:1048D0003F934F935F936F937F938F939F93AF9388
:1048E000BF93CF93DF93EF93FF93CCB5DDB520E279
:1048F00026BF8FB7F894D82E80911501909116019C
:104900008530910521F0069709F08FC2F7C086E047
:1049100090E0909316018093150151E050938D0221
:1049200087B78F7D87BF26BF8EB58F7B8EBD87B73C
:10493000806287BFE0917302F0917402818185FFEC
:1049400002C0509319028FB7F894282F3327A22F53
:1049500080910201833011F02FBFBFC08FEF809391
:10496000020130911301332309F078C08FB7F89416
:104970009927109276028FBF80911301882309F046
:10498000A7C0409102014F3F09F0A2C08FB7F89431
:10499000282F332790E080917602882309F491E054
:1049A0002FBF992309F494C05093280280911902D3
:1049B000882319F0109228028BC080911401823054
:1049C00009F046C080910501882309F081C08091DB
:1049D000030190E08F3F09F491E09923A1F58F3F07
:1049E00019F42FEF30E00DC0282F3327F901E450E0
:1049F000FD4F8081809303018F3F11F440930401A8
:104A0000408320938F0281E0809314019FB7F89434
:104A10008091F2028F3F99F48091F8028A3009F078
:104A200052C20DC08AE08093E50207C0E091F8020F
:104A3000FF27E851FD4F8AE080838093F802892F99
:104A400099278FBF05C0409305011092140141C200
:104A500080911401882309F43CC23AC080E065E0EB
:104A60000E948D50292F492F5527832F9927042ED7
:104A700002C0959587950A94E2F780FF2BC020939A
:104A8000020181E090E002C0880F991F4A95E2F789
:104A900080953823309313019FB7F8948091F002EA
:104AA0008F3F99F48091F802883009F017C20DC049
:104AB00088E08093E50207C0E091F802FF27E85103
:104AC000FD4F88E080838093F802892F99278FBF5C
:104AD000AFBF03C0822F8F5FC2CF87B78F7E87BFE4
:104AE000E0917302F091740281818770813021F42A
:104AF000C5A78D2F992784A78499E3C110928D02B1
:104B000087B78F7D87BF80E286BF8EB580648EBDFC
:104B100087B7806287BFE0917302F0917402818150
:104B200085FFE9C087E090E090931601809315011E
:104B30008FB7F89460912F02709130022CB53DB57B
:104B400006B602FE04C06F5F7F4F2CB53DB59927B6
:104B50008FBFEFB7F894CB01AA27BB27DC019927B9
:104B6000882744275527822B932BA42BB52B809382
:104B70006D0290936E02A0936F02B093700280E07A
:104B800091E0A0E0B0E08093DE029093DF02A0937A
:104B9000E002B093E1024FB7F89480912F02909118
:104BA00030022CB53DB506B602FE03C001962CB509
:104BB0003DB5AA27BB278C01FF24EE24C901AA27F3
:104BC000BB27E82AF92A0A2B1B2B842F99278FBF92
:104BD00080916D0290916E02A0916F02B09170026F
:104BE0002091DE023091DF024091E0025091E1021B
:104BF000280F391F4A1F5B1FE816F9060A071B0713
:104C000030F0281739074A075B0758F005C0281706
:104C100039074A075B07E0F5E216F30604071507B4
:104C2000B8F5DA01C9018E199F09A00BB10B8130CB
:104C300060E8960760E0A60760E0B60768F120E04C
:104C400030E840E050E0E20EF31E041F151FE09232
:104C50006D02F0926E0200936F021093700220E0DA
:104C600030E84FEF5FEFE20EF31E041F151F805078
:104C70009048A040B0408093DE029093DF02A09362
:104C8000E002B093E10280E090E8A0E0B0E014C060
:104C900080E090E0A0E0B0E020936D0230936E02DF
:104CA00040936F02509370021092DE021092DF0266
:104CB0001092E0021092E102BC012CB53DB5C90191
:104CC0008E199F0903968617970718F0C901039656
:104CD00003C0C701860F971F009711F481E090E091
:104CE00001979BBD8ABD80E186BF87B7806187BF82
:104CF0008E2F992797C081E090E0909316018093C2
:104D000015011092190280911301882309F06DC0DA
:104D1000409102014F3F09F068C08FB7F894282FE7
:104D2000332790E080917602882309F491E02FBF29
:104D3000992309F45AC081E08093280280911902D6
:104D4000882319F01092280250C0809114018230FB
:104D500009F046C080910501882309F046C0809182
:104D6000030190E08F3F09F491E09923A1F58F3F73
:104D700019F42FEF30E00DC0282F3327F901E4504C
:104D8000FD4F8081809303018F3F11F44093040114
:104D9000408320938F0281E0809314019FB7F894A1
:104DA0008091F2028F3F99F48091F8028A3009F0E5
:104DB0009BC00DC08AE08093E50207C0E091F80235
:104DC000FF27E851FD4F8AE080838093F802892F06
:104DD00099278FBF05C040930501109214018AC026
:104DE00080911401882309F485C010920F019FB7A8
:104DF000F8948091EC028F3F99F48091F80284300E
:104E000009F07DC00DC084E08093E50207C0E09109
:104E1000F802FF27E851FD4F84E080838093F80279
:104E2000892F99278FBF849B4CC0809117018823BD
:104E300051F591E090938D0287B78F7D87BF20E277
:104E400026BF8EB58F7B8EBD87B7806287BF80916E
:104E50008E02883078F4E0918302E80FFF27E77034
:104E6000F070EE0FFF1FE350FD4FD183C0838F5FC3
:104E700080938E0290931701D093CC02C093CB0203
:104E8000849B43C01EC010928D0287B78F7D87BF61
:104E900080E286BF8EB580648EBD87B7806287BF93
:104EA000109217018091CB029091CC02C81BD90BB4
:104EB0002A9738F480918E02882319F081508093CC
:104EC0008E02DFBE31C08091E5028F3F09F0AECD8A
:104ED000A9CD6E981092FA02C09AFACD8091E5029F
:104EE0008F3F09F0E9CDE4CD8091E5028F3F09F0D5
:104EF00065CF60CF6E981092FA02C09A76CF8091FB
:104F0000E5028F3F09F083CF7ECF10928D0287B7E5
:104F10008F7D87BF26BF8EB580648EBD87B78062C8
:104F200087BF10921701C6CFFF91EF91DF91CF910C
:104F3000BF91AF919F918F917F916F915F914F91B1
:104F40003F912F911F910F91FF90EF90DF900F9065
:104F50000FBE0F901F901895EF92FF920F931F9323
:104F6000CF93DF93E0912502E1FFB4C220911D02AF
:104F700030911E0240911F0250912002E0902102C8
:104F8000F09022020091230210912402621B730B05
:104F9000840B950B6E157F058007910708F49AC264
:104FA000E0FF04C0ED7FE09325020CC02E0D3F1DF5
:104FB000401F511F20931D0230931E0240931F0279
:104FC0005093200280910E01882309F07BC2E4E314
:104FD000F2E0809134028C508093040080910001B3
:104FE0009091010180934002892F992780933F027D
:104FF00010924202109241028FEF80933A02809306
:105000003B0226E020933E0280912A0290912B02DF
:10501000892B09F057C2F0932B02E0932A0280E11A
:105020008093340280910901882309F448C21092C8
:1050300009018FEF9FEF80933A028FEF90E080930A
:105040003B022FB7F894332780918102909182021E
:105050002FBF80933802892F9927809339029FB7F9
:10506000F89480917802882311F021E004C081E057
:105070008093780220E0892F99278FBF222309F09F
:1050800016C280911C028F5F80931C028150838323
:105090008FB7F894482F55278FB7F894282F3327C8
:1050A00090E080917702823009F491E02FBF99233C
:1050B00041F44FBF8FB7F8949927109278028FBFB1
:1050C000F6C18FB7F894992724E0209377028FBF19
:1050D00084E392E09093F7028093F6024FBF80E161
:1050E0008093340280913502807299278164986898
:1050F0008183892F9927809336022FB7F89433271D
:1051000080910601909107012FBF8087892F9927F1
:1051100080933D0210925F0210925C0210925D0239
:10512000109261021092600271E07093E20240916D
:10513000F6025091F7028FB7F894282F3327622F89
:1051400080911501909116018830910509F41CC1D8
:105150008A30910509F418C18930910509F414C108
:10516000019711F02FBFABC182E090E09093160140
:105170008093150170937A025093740240937302E6
:10518000109284022FBF8FB7F894382F9FB7F894EE
:1051900080917602882311F021E003C0709376029B
:1051A00020E0892F99278FBF222319F03FBF45E0C8
:1051B00022C080910501882309F0A7C112C082E0B6
:1051C00080931401109205016E98BA9ABB98B99A0F
:1051D000B89A6C9AC0986F98709A6B986A98689809
:1051E0006E9A83E08093020180E03FBF9927482FA9
:1051F000882309F47AC03FB7F8949FB7F894809158
:105200007602882311F021E004C081E080937602C9
:1052100020E0892F99278FBF222309F05BC083E00C
:105220008093020180910501882309F07BC19FB71B
:10523000F8948091F0028F3FD1F58091F802883088
:1052400009F076C134C088E026C0E091F802FF275B
:10525000E851FD4F88E028C06E98BA9ABB98B99A79
:10526000B89A6C9AC0986F98709A6B986A98689878
:105270006E9A81E08093140110928F029FB7F89488
:105280008091F2028F3F99F48091F8028A3009F000
:105290005BC10DC08AE08093E50207C0E091F8028F
:1052A000FF27E851FD4F8AE080838093F802892F21
:1052B00099278FBF14C0E0910401EE2381F04AC109
:1052C0001092030104C0FF27E450FD4F108210929A
:1052D000040105C080911301886080931301832F1E
:1052E00099278FBF442309F0EAC0E0917302F0913F
:1052F000740287A19927682F882309F46FE1C09869
:105300008091E302861761F18FB7F894482F5527F3
:105310008FB7F894282F332790E080917602882366
:1053200009F491E02FBF992311F04FBF19C04FBF6F
:105330006E9A85E18FB9779BFECF262F33272F7189
:105340003070206E30688FB1832F99276E9A8FB995
:10535000779BFECF8FB16E9A2FB9779BFECF8FB11F
:105360006093E30240818FB7F894682F77278FB757
:10537000F894282F332790E080917602882309F44F
:1053800091E02FBF992311F06FBF99C06FBF8EE3DB
:1053900090E090938602809385026E9A8EE38FB997
:1053A000779BFECF41508FB12FB7F8943327F093FE
:1053B0007D02E0937C0210922D0210922C02842F29
:1053C0009927909395028093940210923302109241
:1053D00032022FBF442309F44DC08FB18FB7F89428
:1053E0009927E0917C02F0917D0200912C021091AE
:1053F0002D026091320270913302409194025091DB
:1054000095029B01265F3F4F4217530708F49A010C
:105410008FBFE801C60FD71FDF01A60FB71F2150AE
:10542000304015C0309731F08C916E9A8FB9779BD0
:10543000FECF04C06E9A1FB8779BFECF8FB10115C7
:10544000110509F088836F5F7F4F219611966217CF
:10545000730740F36F9A9FB7F894309729F0E60FDF
:10546000F71F80818FB901C01FB87093330260931A
:10547000320219C09FB7F8948091F1028F3F99F4DE
:105480008091F802893009F06BC00DC089E08093EB
:10549000E50207C0E091F802FF27E851FD4F89E0DF
:1054A00080838093F802892F99278FBF08C081E0FD
:1054B0008093090110922B0210922A0203C081E00E
:1054C00080930E018FB7F89499272BB334E02327EC
:1054D0002BBB8FBF9FB7F8948091E9028F3F09F0F3
:1054E0004BC08091F802813009F040C045C081E096
:1054F0008093E50207C0E091F802FF27E851FD4FD5
:1055000081E080838093F80237C080911401882362
:1055100009F455CE8FB7F8949927109276028FBF71
:1055200081E063CE80911401882309F495CE06C0F2
:105530008091E5028F3F09F088CE85CE8091FC02F4
:105540008F3F09F0CCCEB7CE8091E5028F3F09F0B6
:10555000A5CEA0CE809103018F3F09F0B4CEB0CE8E
:105560008091E5028F3F09F095CF90CF8091E502C1
:105570008F3F09F0C0CFBBCF892F99278FBFDF9115
:10558000CF911F910F91FF90EF9008952F923F922E
:105590004F925F926F927F928F929F92AF92BF9243
:1055A000CF92DF92EF92FF920F931F93CF93DF93EF
:1055B000CDB7DEB72D970FB6F894DEBF0FBECDBFC7
:1055C000863009F4DAC3873098F4823009F457C280
:1055D000833038F4882379F1813011F00C949835B8
:1055E000C1C1843009F408C3853008F091C3FCC2FE
:1055F0008A3011F40C9477338B3038F4883009F406
:1056000069C4893008F06EC6BEC38C3051F08C304E
:1056100010F40C94A3338D3011F00C9498350C9445
:1056200055348091E402882311F40C94983540E0BD
:1056300051E00C942A3480912602882309F043C05B
:10564000E090D902F090DA020091DB021091DC02C6
:105650006FB7F89477272091890230918A024091A0
:105660008B0250918C028091C7029091C802A09148
:10567000C902B091CA02280F391F4A1F5B1F6FBFB2
:10568000E092D902F092DA020093DB021093DC027E
:10569000109226026FB7F894772781E080939602E4
:1056A0002093890230938A0240938B0250938C029C
:1056B000E092C702F092C8020093C9021093CA0296
:1056C0006FBF0E947C056FB7F89482B7209190025B
:1056D00030919102409192025091930206B601FEE0
:1056E0000FC081B792B7280F311D411D511D2F5F8B
:1056F0003F4F4F4F5F4F290F311D411D511D04C0BA
:10570000280F311D411D511D862F99278FBF609194
:10571000250261FF52C280911D0290911E02A0914C
:105720001F02B0912002E0902102F090220200912D
:10573000230210912402281B390B4A0B5B0B2E15F8
:105740003F054007510708F438C260FF04C06D7F71
:10575000609325020CC08E0D9F1DA01FB11F80936A
:105760001D0290931E02A0931F02B093200280910D
:105770000E01882309F0EDC0E4E3F2E080913402E9
:105780008C508093040080910001909101018093DE
:105790004002892F992780933F0210924202109273
:1057A00041028FEF80933A0280933B0226E02093E0
:1057B0003E0280912A0290912B02892B09F0C9C0E8
:1057C000F0932B02E0932A0280E1809334028091CF
:1057D0000901882309F4BAC0109209018FEF9FEFE5
:1057E00080933A028FEF90E080933B022FB7F894BA
:1057F000332780918102909182022FBF80933802DB
:10580000892F9927809339029FB7F8948091780265
:10581000882311F021E004C081E08093780220E029
:10582000892F99278FBF222309F088C080911C02FD
:105830008F5F80931C02815083838FB7F894482F29
:1058400055278FB7F894282F332790E0809177025F
:10585000823009F491E02FBF992341F44FBF8FB7F5
:10586000F8949927109278028FBF68C08FB7F89488
:10587000992724E0209377028FBF84E392E09093EE
:10588000F7028093F6024FBF80E18093340280914B
:10589000350280729927816498688183892F9927BE
:1058A000809336022FB7F8943327809106019091A8
:1058B00007012FBF8087892F992780933D0210927F
:1058C0005F0210925C0210925D02109261021092CF
:1058D000600271E07093E2024091F6025091F7028B
:1058E0008FB7F894282F3327622F8091150190915C
:1058F00016018830910531F08A30910519F0893010
:10590000910511F46FBF22C0019711F02FBF1EC087
:1059100082E090E0909316018093150170937A02D3
:105920005093740240937302109284022FBF0E941E
:105930001E0A882359F40E94FB0A08C081E0809364
:10594000090110922B0210922A0203C081E0809379
:105950000E018FB7F89499272BB334E023272BBB84
:105960008FBF2BC1EFB7F89462B7209190023091AE
:105970009102409192025091930206B601FE11C02D
:1059800081B792B7BA01A901480F511D611D711D60
:105990004F5F5F4F6F4F7F4F490F511D611D711D4D
:1059A00008C0DA01C901860F911DA11DB11DAC010E
:1059B000BD018E2F99278FBF8FB7F894992710922A
:1059C00096028FBF8091250281FD02C00C9498350C
:1059D00080911D0290911E02A0911F02B0912002A1
:1059E0008A019B01081B190B2A0B3B0BD901C8012B
:1059F000E0902102F09022020091230210912402F3
:105A0000E81AF90A0A0B1B0B2FEFE2162FEFF2062A
:105A10002FEF02072FE7120711F40C9498351E148C
:105A20001F041006110634F0CB01BA010E94AC2706
:105A30000C949835E092D902F092DA020093DB02DE
:105A40001093DC0221E0209326028FB7F894992767
:105A5000209396024093890250938A0260938B02AE
:105A600070938C02E092C702F092C8020093C902C0
:105A70001093CA028FBF0E947C050C9498352FB7F3
:105A8000F894332787B78F7D87BF80E286BF8EB5B6
:105A900080648EBD87B7806287BF41E050E050933D
:105AA00016014093150110921701109219021092DD
:105AB000E3022FBF2FB7F894332780E880932E029C
:105AC0001092830210928E021092FB025093670292
:105AD000409366021092310289B78F7B89BF80E4C0
