S01800006275696C642F6D696361322F6D61696E2E737265632D
S11300000C9488010C94A7010C94A7010C94A701EB
S11300100C94A7010C94A7010C94A7010C94A701BC
S11300200C94A7010C94A7010C94A7010C94A701AC
S11300300C94A7010C94A7010C94A7010C949508A7
S11300400C94F6050C94B42D0C94A7010C94A70100
S11300500C94A7010C94F4280C94A7010C94A70108
S11300600C94A7010C94A7010C94A7010C94A7016C
S11300700C94A7010C94A7010C94A7010C94A7015C
S11300800C94A7010C94A7010C94A7010000211063
S1130090422063308440A550C660E77008812991EE
S11300A04AA16BB18CC1ADD1CEE1EFF13112100296
S11300B073325222B5529442F772D662399318833E
S11300C07BB35AA3BDD39CC3FFF3DEE36224433462
S11300D020040114E664C774A44485546AA54BB58E
S11300E028850995EEE5CFF5ACC58DD55336722636
S11300F011163006D776F6669556B4465BB77AA7DE
S113010019973887DFF7FEE79DD7BCC7C448E55881
S11301108668A7784008611802282338CCC9EDD92D
S11301208EE9AFF9488969990AA92BB9F55AD44AD5
S1130130B77A966A711A500A333A122AFDDBDCCB7D
S1130140BFFB9EEB799B588B3BBB1AABA66C877CA1
S1130150E44CC55C222C033C600C411CAEED8FFDCD
S1130160ECCDCDDD2AAD0BBD688D499D977EB66E75
S1130170D55EF44E133E322E511E700E9FFFBEEF1D
S1130180DDDFFCCF1BBF3AAF599F788F8891A981DF
S1130190CAB1EBA10CD12DC14EF16FE18010A100C9
S11301A0C230E3200450254046706760B9839893B9
S11301B0FBA3DAB33DC31CD37FE35EF3B102901219
S11301C0F322D2323542145277625672EAB5CBA585
S11301D0A89589856EF54FE52CD50DC5E234C32469
S11301E0A01481046674476424540544DBA7FAB759
S11301F09987B8975FE77EF71DC73CD7D326F236B9
S11302009106B01657667676154634564CD96DC9A4
S11302100EF92FE9C899E9898AB9ABA94458654808
S113022006782768C018E1088238A3287DCB5CDBF8
S11302303FEB1EFBF98BD89BBBAB9ABB754A545A58
S1130240376A167AF10AD01AB32A923A2EFD0FEDC4
S11302506CDD4DCDAABD8BADE89DC98D267C076CA8
S1130260645C454CA23C832CE01CC10C1FEF3EFF98
S11302705DCF7CDF9BAFBABFD98FF89F176E367EF8
S1130280554E745E932EB23ED10EF01E00081C181B
S11302901410ABBA83AAAA3158000057F685035547
S11302A044020F60E0261C6B557081317C00007B9A
S11302B0F9AE02388C3280401026A16B5510F33110
S11302C051000050F74F030E44020F58E026A16B73
S11302D0557081315CE0005CDB4201AA8C328030D5
S11302E01026A16B5510F3314560004555BB039CA6
S11302F080020F68E026A16B5470813158000057CA
S1130300F685035590020F60E026A16B55708100BD
S113031011241FBECFEFD0E1DEBFCDBF11E0A0E0BE
S1130320B1E0E0ECFDE600E00BBF02C007900D92E7
S1130330AC30B107D9F712E0ACE0B1E001C01D92D6
S1130340A53DB107E1F70E94CD180C94DF360C945B
S11303500000E4E1F1E0DF01A80FB11D9C91E60F7C
S1130360F11D80818C93908308954F925F926F92D8
S11303707F928F929F92AF92BF92CF92DF92EF9231
S1130380FF920F931F93CF93DF932C0180E090E0B3
S1130390E4E1F1E08193019621E080309207D1F706
S11303A0AA24BB246501EE24FF248701C4E1D1E023
S11303B0662E772488249924EE0CFF1C001F111F3D
S11303C08991E80EF11C011D111DC601B501A4019E
S11303D093010E948636F201E60FF71F8081E80E32
S11303E0F11C011D111D8FEF90E0A0E0B0E0E822A8
S11303F0F9220A231B23AA2DBB27AC5EBE4F9C9176
S1130400EE2DFF27EC5EFE4F80818C939083089441
S1130410A11CB11CC11CD11C90E0A91691E0B90625
S113042090E0C90690E0D90639F6DF91CF911F918B
S11304300F91FF90EF90DF90CF90BF90AF909F907F
S11304408F907F906F905F904F9008950F931F93BC
S1130450CF93DF93A0910C01B0910D011196B07070
S1130460B0930D01A0930C01E0910E01F0910F01E6
S1130470EE0FFF1F44E151E0BD01640F751FEB0156
S11304808881E80FF11DF070F0930F01E0930E01E5
S1130490DB01382FCF01840F951FEC0128812C93A9
S11304A038838C91032F112722273327080F111D1E
S11304B0211D311DF801F070E40FF51F808199278B
S11304C0DF91CF911F910F910895CF92DF92EF9218
S11304D0FF920F931F93CF93DF93A0910C01B091E0
S11304E00D011196B07020910E0130910F01220F71
S11304F0331F04E111E0BD01600F711FEB0188811E
S1130500280F311D3070982FF901E00FF11F808101
S113051088839083FB018081492F5527662777279D
S1130520480F511D611D711DFA01F070E00FF11F9C
S11305306081772788279927982F872F762F66271A
S11305401196B070220F331F6D01C00ED11EE6014B
S11305504881240F311D3070542FF901E00FF11F31
S1130560408148835083F6014081C52EDD24EE246A
S1130570FF24C40ED11CE11CF11CF601F070E00F45
S1130580F11F4081640F711D811D911D660F771F3E
S1130590881F991F1196B070B0930D01A0930C01A0
S11305A07D01E00EF11EE7014881F901E40FF11D20
S11305B0E20FF31FF070F0930F01E0930E01D701E7
S11305C0542F9F01200F311FE90148814C93588318
S11305D02C91C52EDD24EE24FF24C20ED11CE11C77
S11305E0F11CF601F070E00FF11F2081332744273E
S11305F055272170307040705070620F731F841F34
S1130600951FDF91CF911F910F91FF90EF90DF9095
S1130610CF9008952F923F924F925F926F927F9264
S11306208F929F92AF92BF92CF92DF92EF92FF92FE
S11306300F931F93CF93DF93CDB7DEB72F970FB6EA
S1130640F894DEBF0FBECDBF9B01AC01E3E9FE0110
S11306503596CE010D961192E817F907E1F7852F2B
S11306609927AA27BB2789834A833B832C8380E06D
S113067090E0E4E1F1E08193019621E0803092077B
S1130680D1F7EE24FF24870120E030E040E050E081
S113069064E171E06E010894C11CD11C220F331F68
S11306A0441F551FFB018191BF01280F311D411DBE
S11306B0511DD801C70183709070A070B070F6010D
S11306C0E80FF91F8081280F311D411D511D307025
S11306D040705070AE2DBB27AC5EBE4F9C91E22F94
S11306E0FF27EC5EFE4F80818C9390830894E11C7D
S11306F0F11C011D111DF0E0EF16F1E0FF06F0E022
S11307000F07F0E01F0751F620910E0130910F0101
S113071040910C0150910D0160E070E04F5F5F4F1C
S11307205070220F331FFA01EC5EFE4F8081280FB8
S1130730311D3070DF01982FF901EC5EFE4F80818E
S11307408C9390836F5F7F4F81E06030780731F73F
S11307504F5F5F4F5070220F331FBA016C5E7E4FA4
S1130760FB018081280F311D3070DB01982FF901C6
S1130770EC5EFE4F80818C939083FB018081E92E97
S1130780FF2400271127E80EF11C011D111DF7019C
S1130790F070EC5EFE4F80819927AA27BB27662460
S11307A0782E892E9A2E4F5F5F4F5070BA016C5E7F
S11307B07E4FFB018081F901E80FF11DCF01820F0B
S11307C0931F9070DB013C91FC01EC5EFE4F208195
S11307D02C933083FB012081E32EFF240027112773
S11307E0E20EF11C011D111DF701F070EC5EFE4FCD
S11307F02081620E711C811C911C8A010F5F1F4FA6
S1130800107010930D0100930C01A8014C5E5E4F13
S1130810FA012081BC01620F711D680F791F70708D
S113082070930F0160930E01DA01FB01EC5EFE4F41
S113083080818C932083FA018081332744275527B4
S1130840280F311D411D511D660C771C881C991CF5
S1130850F901F070EC5EFE4F80819927AA27BB272F
S113086081709070A070B070680E791E8A1E9B1EF5
S1130870A40193012224332421011D868D858250F5
S11308808770E5E0F0E0EC0FFD1FE80FF11D8081BB
S11308908BBEF72DE62DD895902D9827E5E0F0E056
S11308A0EC0FFD1F8D85E80FF11D8081920F890FDC
S11308B0982F991F9927991F880F890F80839D85E9
S11308C09F5F97709D87A8014F5F5F4F50709B019A
S11308D0220F331FBA016C5E7E4FFB018081280F0B
S11308E0311D3070DB01982FF901EC5EFE4F8081E1
S11308F08C939083FB018081E92EFF24002711272C
S1130900E80EF11C011D111DF701F070EC5EFE4FA5
S113091080819927AA27BB27AA24B82EC92EDA2EAC
S11309204F5F5F4F5070220F331FBA016C5E7E4FD2
S1130930FB018081280F311D3070DB01982FF901F4
S1130940EC5EFE4F80818C939083FB018081E92EC5
S1130950FF2400271127E80EF11C011D111DF701CA
S1130960F070EC5EFE4F8081A80EB11CC11CD11C3E
S11309708A010F5F1F4F1070A8014C5E5E4FFA0191
S11309808081B901680F711D620F731F7070DA01E5
S1130990982FFB01EC5EFE4F80818C939083FA01CB
S11309A08081292F332744275527280F311D411DC6
S11309B0511DAA0CBB1CCC1CDD1CF901F070EC5EB3
S11309C0FE4F80819927AA27BB2781709070A07061
S11309D0B070A80EB91ECA1EDB1E0894211C311C5F
S11309E0411C511CA4019301FAE12F16F1E93F06C1
S11309F0F7E14F06F0E05F0619F0350146013ECFFE
S1130A0070930F0160930E0110930D0100930C017C
S1130A1022243324442455246624772488249924C6
S1130A209E012B5F3F4F3F872E8708E0222D332DF9
S1130A30442D552D662D772D882D992D0E94DD3559
S1130A40222E332E442E552E662E772E882E992E46
S1130A50EE85FF85A080BB24CC24DD24EE24FF2476
S1130A6000E010E02A0DE1E0221508F0E0E0332D6B
S1130A703B0DA1E0331508F0A0E0E30FF1E0E3172C
S1130A8008F0F0E0AF2B3E2F442D4C0DB1E044159F
S1130A9008F0B0E0EA2FE40FF1E0E41708F0F0E02A
S1130AA0BF2B4E2F552D5D0DA1E0551508F0A0E08C
S1130AB0EB2FE50FF1E0E51708F0F0E0AF2B5E2F28
S1130AC0662D6E0DB1E0661508F0B0E0EA2FE60F72
S1130AD0F1E0E61708F0F0E0BF2B6E2F772D7F0DC5
S1130AE0A1E0771508F0A0E0EB2FE70FF1E0E7179E
S1130AF008F0F0E0AF2B7E2F882D800FB1E0881531
S1130B0008F0B0E0EA2FE80FF1E0E81708F0F0E0B1
S1130B10FB2B992D910FF90F222E332E442E552E97
S1130B20662E772E8E2E9F2E2E853F852F5F3F4F6C
S1130B303F872E87CE010D962817390709F075CF08
S1130B40E4E9222D332D882D9F2F2F960FB6F8948C
S1130B50DEBF0FBECDBFDF91CF911F910F91FF90EC
S1130B60EF90DF90CF90BF90AF909F908F907F9049
S1130B706F905F904F903F902F9008958FB7F894A7
S1130B80992708958FBF0895ECE8F0E06927660F70
S1130B90F11DE60FF11DC895982F802D3196C8954B
S1130BA090250895880F949890E087FF02C0979A43
S1130BB001C097989698969A9F5F973011F0880F86
S1130BC0F4CF979A9698969A949A80E067FF02C019
S1130BD0979A01C097989698969A8F5F883011F0EB
S1130BE0660FF4CF949A979A969A08951F920F924B
S1130BF00FB60F9211248F9383B783BF00B600FC06
S1130C00FDCF8F910F900FBE0F901F901895EF920C
S1130C10FF920F931F938FB7F894282F3327E22F57
S1130C2091B782B746B7981711F041FF02C02FBFA2
S1130C30ADC08091B602882309F460C06FB7F89400
S1130C4082B72091AF023091B0024091B10250912D
S1130C50B20206B601FE0FC081B792B7280F311D4C
S1130C60411D511D2F5F3F4F4F4F5F4F290F311DC6
S1130C70411D511D04C0280F311D411D511D862FDA
S1130C8099278FBFE0909402F0909502009196020C
S1130C90109197028091B7029091B802A091B90285
S1130CA0B091BA022E193F09400B510B281739078E
S1130CB04A075B0720F01092B60271E020C0A80139
S1130CC09701280F391F4A1F5B1F8091AF02909133
S1130CD0B002A091B102B091B202281B390B4A0BA9
S1130CE05B0B273E31054105510540F4822F22302C
S1130CF010F070E005C070E082E002C070E086EEA3
S1130D00682F615000B601FCFDCF82B7681709F463
S1130D106F5F2091AF023091B0024091B1025091C7
S1130D20B202DA01C9010196A11DB11D860F911D00
S1130D30A11DB11D82179307A407B50710F4622FF4
S1130D40609561BFEFBF772309F19FB7F894809155
S1130D50CA028F3F91F48091D002883091F40DC083
S1130D6088E08093C10207C0E091D002FF27EE53D0
S1130D70FD4F88E080838093D002892F99278FBF0D
S1130D8005C08091C1028F3F79F7EACF1F910F917F
S1130D90FF90EF90089580911101843009F4DDC033
S1130DA0853009F4A9C0813009F038C18091480226
S1130DB081FD34C190E0809188028F3108F091E088
S1130DC0992309F468C080914E0290914F02892BB7
S1130DD089F56FB7F89482B72091AF023091B002D1
S1130DE04091B1025091B20206B601FE0FC081B724
S1130DF092B7280F311D411D511D2F5F3F4F4F4F9B
S1130E005F4F290F311D411D511D04C0280F311D95
S1130E10411D511D862F99278FBF20934002309387
S1130E204102409342025093430280E09AE0A0E0E2
S1130E30B0E0C6C06FB7F89482B72091AF0230918A
S1130E40B0024091B1025091B20206B601FE0FC049
S1130E5081B792B7280F311D411D511D2F5F3F4FA0
S1130E604F4F5F4F290F311D411D511D04C0280FE5
S1130E70311D411D511D862F99278FBF209340029C
S1130E803093410240934202509343028EE190E03A
S1130E90A0E0B0E095C06FB7F89482B72091AF029C
S1130EA03091B0024091B1025091B20206B601FEF7
S1130EB00FC081B792B7280F311D411D511D2F5FFF
S1130EC03F4F4F4F5F4F290F311D411D511D04C02E
S1130ED0280F311D411D511D862F99278FBF209347
S1130EE0400230934102409342025093430280E017
S1130EF098E0A0E0B0E064C06FB7F89482B72091A6
S1130F00AF023091B0024091B1025091B20206B6E4
S1130F1001FE0FC081B792B7280F311D411D511D2D
S1130F202F5F3F4F4F4F5F4F290F311D411D511D03
S1130F3004C0280F311D411D511D862F99278FBFD5
S1130F402093400230934102409342025093430263
S1130F5081E090E0A0E0B0E033C060914E02709177
S1130F604F02EFB7F89482B72091AF023091B002EC
S1130F704091B1025091B20206B601FE0FC081B792
S1130F8092B7280F311D411D511D2F5F3F4F4F4F09
S1130F905F4F290F311D411D511D04C0280F311D04
S1130FA0411D511D8E2F99278FBF209340023093EE
S1130FB041024093420250934302CB01AA27BB272C
S1130FC08093440290934502A0934602B093470253
S1130FD0809148028360809348029FB7F89480917F
S1130FE0CB028F3F91F48091D002893091F40DC0EF
S1130FF089E08093C10207C0E091D002FF27EE533D
S1131000FD4F89E080838093D002892F99278FBF79
S113101008958091C1028F3F79F7EACF0895982F00
S113102080910401843009F076C09093040190917A
S1131030070180911301882309F070C082E0809336
S1131040130110928902379A913031F410920701FA
S113105083E08093130109C0992339F081E08093E0
S1131060130110928902379A5DC082E08093AE0228
S11310701092B5023FB7F8949091CE02892F8E7FDB
S11310808093CE0287B120E0829586958695837001
S113109009F021E081E02827220F9078922B909389
S11310A0CE0217B8809192029091930221E0863883
S11310B0920718F087E090E01FC0833C910518F078
S11310C086E090E019C08136910518F085E090E043
S11310D013C08033910518F084E090E00DC088318E
S11310E0910518F083E090E007C00C9718F082E0B7
S11310F090E002C080E090E08770987D982B986D16
S1131100892F992786B9832F99278FBF0BC08160B8
S11311108093520207C090934D0204C08091520202
S113112080FFF5CF80E090E008951F920F920FB6F4
S11311300F921124EF92FF920F931F932F933F93DB
S11311404F935F936F937F938F939F93AF93BF93CB
S1131150EF93FF9383B783BF00B600FCFDCF81B745
S113116099270196AA27BB272091AF023091B0029C
S11311704091B1025091B202280F391F4A1F5B1FE0
S11311802093AF023093B0024093B1025093B20265
S113119078948FB7F894282F3327E22F91B782B72A
S11311A046B7981711F041FF02C02FBFADC0809120
S11311B0B602882309F460C06FB7F89482B720910F
S11311C0AF023091B0024091B1025091B20206B622
S11311D001FE0FC081B792B7280F311D411D511D6B
S11311E02F5F3F4F4F4F5F4F290F311D411D511D41
S11311F004C0280F311D411D511D862F99278FBF13
S1131200E0909402F090950200919602109197025A
S11312108091B7029091B802A091B902B091BA023C
S11312202E193F09400B510B281739074A075B0752
S113123020F01092B60271E020C0A8019701280F97
S1131240391F4A1F5B1F8091AF029091B002A09199
S1131250B102B091B202281B390B4A0B5B0B273E3B
S113126031054105510540F4822F223010F070E021
S113127005C070E082E002C070E086EE682F615025
S113128000B601FCFDCF82B7681709F46F5F2091A7
S1131290AF023091B0024091B1025091B202DA0132
S11312A0C9010196A11DB11D860F911DA11DB11D7E
S11312B082179307A407B50710F4622F609561BFE6
S11312C0EFBF772309F19FB7F8948091CA028F3F4B
S11312D091F48091D002883091F40DC088E080931D
S11312E0C10207C0E091D002FF27EE53FD4F88E012
S11312F080838093D002892F99278FBF05C0809166
S1131300C1028F3F79F7EACFFF91EF91BF91AF917F
S11313109F918F917F916F915F914F913F912F9109
S11313201F910F91FF90EF900F900FBE0F901F90A1
S1131330189520919102949892E180E097FF02C061
S1131340979A01C097989698969A8F5F873011F074
S1131350990FF4CF979A9698969A949A80E027FFDB
S113136002C0979A01C097989698969A8F5F883092
S113137011F0220FF4CF949A979A969A949896E142
S113138080E097FF02C0979A01C097989698969A22
S11313908F5F873011F0990FF4CF979A9698969AA9
S11313A0949A80E097989698969A8F5F8830D1F7B0
S11313B0949A979A969A949880E097989698969A81
S11313C08F5F8730D1F7979A9698969A949A91E17D
S11313D080E097FF02C0979A01C097989698969AD2
S11313E08F5F883011F0990FF4CF949A979A969A58
S11313F08DE790E0019701960197E1F708952F9208
S11314003F924F925F926F927F928F929F92AF9290
S1131410BF92CF92DF92EF92FF920F931F93CF93DD
S1131420DF93CDB7DEB7AF970FB6F894DEBF0FBE2C
S1131430CDBF853009F41EC38630A0F4823009F490
S11314407EC1833038F4882381F1813011F00C940B
S1131450B41870C1833009F45FC2843011F00C9465
S1131460B418D7C2883009F4B7C5893040F486303F
S113147009F44BC5873011F00C94B418A9C58A300F
S113148051F08A3010F40C94AC128B3011F00C949F
S1131490B4180C94B4168091C002882311F40C94EF
S11314A0B41840E051E00C9491161FB7F894809161
S11314B01101843009F4DDC0853009F4A9C08130FC
S11314C009F034C18091480281FD30C190E08091DF
S11314D088028F3108F091E0992309F468C0809163
S11314E04E0290914F02892B89F56FB7F89482B719
S11314F02091AF023091B0024091B1025091B202FA
S113150006B601FE0FC081B792B7280F311D411DE9
S1131510511D2F5F3F4F4F4F5F4F290F311D411D0D
S1131520511D04C0280F311D411D511D862F9927BF
S11315308FBF209340023093410240934202509364
S1131540430280E09AE0A0E0B0E0C6C06FB7F89430
S113155082B72091AF023091B0024091B102509114
S1131560B20206B601FE0FC081B792B7280F311D33
S1131570411D511D2F5F3F4F4F4F5F4F290F311DAD
S1131580411D511D04C0280F311D411D511D862FC1
S113159099278FBF20934002309341024093420227
S11315A0509343028EE190E0A0E0B0E095C06FB7A5
S11315B0F89482B72091AF023091B0024091B10209
S11315C05091B20206B601FE0FC081B792B7280F40
S11315D0311D411D511D2F5F3F4F4F4F5F4F290F4D
S11315E0311D411D511D04C0280F311D411D511DC8
S11315F0862F99278FBF2093400230934102409356
S113160042025093430280E098E0A0E0B0E064C05E
S11316106FB7F89482B72091AF023091B002409135
S1131620B1025091B20206B601FE0FC081B792B763
S1131630280F311D411D511D2F5F3F4F4F4F5F4FED
S1131640290F311D411D511D04C0280F311D411D9D
S1131650511D862F99278FBF20934002309341025A
S1131660409342025093430281E090E0A0E0B0E056
S113167033C060914E0270914F02EFB7F89482B775
S11316802091AF023091B0024091B1025091B20268
S113169006B601FE0FC081B792B7280F311D411D58
S11316A0511D2F5F3F4F4F4F5F4F290F311D411D7C
S11316B0511D04C0280F311D411D511D8E2F992726
S11316C08FBF2093400230934102409342025093D3
S11316D04302CB01AA27BB2780934402909345027F
S11316E0A0934602B093470280914802836080939E
S11316F048029FB7F8948091CB028F3FA1F4809168
S1131700D002893011F00C94CD170DC089E080937C
S1131710C10207C0E091D002FF27EE53FD4F89E0DC
S113172080838093D002892F99278FBF812F992797
S11317300C948F168FB7F89499270C948F161FB7B3
S1131740F89480918F0281FD06C080914E029091A1
S11317504F02892B61F5809111018450823008F089
S1131760ADC080910401843019F085E080930401B8
S113177081E0809311019FB7F8948091C2028F3F5A
S113178089F48091D002882369F00C94D5171092C3
S1131790C10206C0E091D002FF27EE53FD4F108234
S11317A01092D002892F99278FBF21E088C090E042
S11317B0809188028F3108F091E0992309F47EC06A
S11317C090E080918C02833009F491E0992309F030
S11317D075C06FE380E00E94D20560E08BE00E9458
S11317E0D20581E080938C026F98B89AC09880915A
S11317F00401843019F085E08093040184E080932F
S1131800110160914E0270914F02EFB7F89482B7C4
S11318102091AF023091B0024091B1025091B202D6
S113182006B601FE0FC081B792B7280F311D411DC6
S1131830511D2F5F3F4F4F4F5F4F290F311D411DEA
S1131840511D04C0280F311D411D511D8E2F992794
S11318508FBF209340023093410240934202509341
S11318604302CB01AA27BB278093440290934502ED
S1131870A0934602B093470280914802836080930C
S113188048029FB7F8948091CB028F3FA1F48091D6
S1131890D002893011F00C94DD170DC089E08093DB
S11318A0C10207C0E091D002FF27EE53FD4F89E04B
S11318B080838093D002892F99278FBF20E0812FC6
S11318C099278FBF222311F40C94B4186BE380E0A2
S11318D00E94D20580ED97E0019701960197E1F708
S11318E069E380E00E94D20588EC90E001970196BC
S11318F00197E1F70FB7F894112782E080938C02E7
S113190010928702109286020E949909BB98BA9895
S113191080EC8DB9B8987AC08FB7F8949927209144
S11319208A0230918B028FBF80915302E82FFF27E8
S1131930EE0FFF1FE856FD4F318320838F5F8093A6
S11319405302893010F010925302809188028F3133
S113195018F48F5F80938802DE011196E8E9F2E0C3
S113196082E101900D928150E1F760E08E010F5FFA
S11319701F4F41E050E0DE011396E52FFF27EE0FE5
S1131980FF1FE00FF11F2D913C91119780819181F0
S11319908217930708F4542F4F5F1296493069F762
S11319A0E52FFF27633041F0EE0FFF1FE00FF11F1B
S11319B0118210826F5FDDCF609105017091060185
S11319C088279927B5E0660F771F881F991FBA9556
S11319D0D1F7EE0FFF1FE00FF11F20813181442763
S11319E05527220F331F441F551F620F731F841F77
S11319F0951F0FB7F894112722E230E040E050E041
S1131A000E94863630930601209305010FBF0C9483
S1131A10B4182FB7F89433274091540250915502CB
S1131A208091D4028D7F8093D40282E080938C02D3
S1131A3010928702109286022FBF80910A01882398
S1131A4011F00C94B41820914B0230914C022417DD
S1131A50350711F00C94B41810924C0210924B02FA
S1131A6081E080930A012451324011F00C94B4189F
S1131A700C94CA178FB7F894282F332780918C02BF
S1131A80853011F00C94E5158091020190910301C9
S1131A909F8F8E8F2FBFAE8DBF8D8C91FD014181A5
S1131AA02FB7F894332760910801709109012FBF73
S1131AB09927982F88275527842B952B86179707C6
S1131AC061F0808121819927982F88273327822BE1
S1131AD0932B8F5F9F4F09F0D8C1EE8DFF8D8681C8
S1131AE0833909F0D2C12781E0848185A2849927B2
S1131AF0AA27BB27BA2FA92F982F88273327442733
S1131B005527522F442733272227FF240027112744
S1131B108701FF24EE242E293F29402B512BBB247F
S1131B20CC24DD242A293B294C295D29822B932BA3
S1131B30A42BB52B8A8F9B8FAC8FBD8F0FB7F894D6
S1131B4011276A8D7B8D8C8D9D8D0E940A03222E18
S1131B50332E442E552E662E772E882E992E0FBFA7
S1131B6080911001882309F090C18091180280931C
S1131B700C00FA8DF0931E022A8D3B8D4C8D5D8DE9
S1131B80BB27A52F942F832F80931D02CA01AA2758
S1131B90BB2780931C02852F9927AA27BB278093F4
S1131BA01B022092260208E0222D332D442D552DB0
S1131BB0662D772D882D992D0E945A352093250264
S1131BC000E1222D332D442D552D662D772D882DA2
S1131BD0992D0E945A352093240208E1222D332D99
S1131BE0442D552D662D772D882D992D0E945A351B
S1131BF02093230200E2222D332D442D552D662DF2
S1131C00772D882D992D0E945A352093220208E2BF
S1131C10222D332D442D552D662D772D882D992D6C
S1131C200E945A352093210200E3222D332D442DA6
S1131C30552D662D772D882D992D0E945A35209388
S1131C40200208E3222D332D442D552D662D772DAA
S1131C50882D992D0E945A3520931F028FEF80936F
S1131C6015028093140222E920931A0280914B02F8
S1131C7090914C02892B09F008C144E152E0509341
S1131C804C0240934B024CE04093180280910A01AD
S1131C90882309F4F7C010920A018FEF9FEF809315
S1131CA015028FEF90E0809314022FB7F894332736
S1131CB080910801909109012FBF80931702892F09
S1131CC099278093160282E2809319028FB7F894C1
S1131CD0282F33279091D40291FD04C080918C0267
S1131CE0882349F42FBF81E080930A0110924C02AB
S1131CF010924B02CAC092609093D402409318028F
S1131D0084E192E090935502809354022FBF9FB7D1
S1131D10998FF89480918F02826080938F028091D2
S1131D2011018430E9F49FB7F8948091C4028F3F85
S1131D30A1F48091D002823011F00C94E5170DC00B
S1131D4082E08093C10207C0E091D002FF27EE53E6
S1131D50FD4F82E080838093D002892F99278FBF23
S1131D6080918F0280FD50C02090820230908302C7
S1131D7040908402509085026624772488244EE49F
S1131D80A42E33E8B32ECC24DD24EE24FF2400E07B
S1131D9010E0222D332D442D552D662D772D882DC1
S1131DA090E00E945C3428A339A34AA35BA36CA3EC
S1131DB07DA38EA39FA3822E932EA42EB52E240141
S1131DC0350100E20E945A35A22EB32EC42ED52E20
S1131DD0D301C201B695A795979587958A0D9B1D4A
S1131DE0AC1DBD1DB7FF04C0BF770196A11DB11D79
S1131DF08093820290938302A0938402B09385021D
S1131E008F719070019602C081E090E09093B402CB
S1131E108093B302809139029927782F66278091A5
S1131E203A029927682B792B77FD05C060914E0201
S1131E3070914F0202C060957095E9E3F2E011825F
S1131E40109239026115710529F466E070E080E0B2
S1131E5090E010C08827992726E632E040E050E061
S1131E600E946736672F782F892F99276A5E7F4FE4
S1131E708F4F9F4F7093AB026093AA02A98D8A2F54
S1131E8099278FBF81E0809310012FB7F894EE8DCE
S1131E90FF8D309721F0F0930301E09302018091CC
S1131EA08C02853039F482E080938C021092870290
S1131EB01092860280911101823021F580910401F3
S1131EC0843019F085E08093040181E0809311014E
S1131ED09FB7F8948091C2028F3F89F48091D00219
S1131EE0882369F00C94ED171092C10206C0E091AA
S1131EF0D002FF27EE53FD4F10821092D002892F9B
S1131F0099278FBF822F99270AC72FB7F8943327B1
S1131F10809189028093070183E0809313012FBF8E
S1131F2080910701882311F00C94B41882E0809307
S1131F30AE021092B5023FB7F8949091CE02892F69
S1131F408E7F8093CE0287B120E082958695869518
S1131F50837009F021E081E02827220F9C7F922BD7
S1131F6093789093CE0217B8809192029091930245
S1131F70F1E086389F0718F087E090E01FC0833CAB
S1131F80910518F086E090E019C08136910518F0AB
S1131F9085E090E013C08033910518F084E090E070
S1131FA00DC08831910518F083E090E007C00C97CC
S1131FB018F082E090E002C080E090E08770987DA5
S1131FC0982B986D892F992786B9832F9927A7C6AF
S1131FD01092AE020C94B41880914902882309F03F
S1131FE0F7C0E090BB02F090BC020091BD021091DA
S1131FF0BE026FB7F894772720919402309195022E
S113200040919602509197028091B7029091B80244
S1132010A091B902B091BA02280F391F4A1F5B1F61
S11320206FBFE092BB02F092BC020093BD0210931A
S1132030BE02109249026FB7F894772781E080932B
S1132040B6022093940230939502409396025093E3
S11320509702E092B702F092B8020093B90210938B
S1132060BA026FBF8FB7F894282F3327E22F91B7A6
S113207082B746B7981711F041FF02C02FBFA8C01E
S11320808091B602882309F460C06FB7F89482B7D0
S11320902091AF023091B0024091B1025091B2024E
S11320A006B601FE0FC081B792B7280F311D411D3E
S11320B0511D2F5F3F4F4F4F5F4F290F311D411D62
S11320C0511D04C0280F311D411D511D862F992714
S11320D08FBFE0909402F0909502009196021091C7
S11320E097028091B7029091B802A091B902B09181
S11320F0BA022E193F09400B510B281739074A071A
S11321005B0720F01092B60271E020C0A80197018D
S1132110280F391F4A1F5B1F8091AF029091B002B4
S1132120A091B102B091B202281B390B4A0B5B0B90
S1132130273E31054105510540F4822F223010F02D
S113214070E005C070E082E002C070E086EE682FA7
S1132150615000B601FCFDCF82B7681709F46F5FC8
S11321602091AF023091B0024091B1025091B2027D
S1132170DA01C9010196A11DB11D860F911DA11D92
S1132180B11D82179307A407B50710F4622F609559
S113219061BFEFBF7723E1F09FB7F8948091CA0243
S11321A08F3F99F48091D002883009F01EC70DC08A
S11321B088E08093C10207C0E091D002FF27EE536C
S11321C0FD4F88E080838093D002892F99278FBFA9
S11321D06FB7F89482B72091AF023091B00240916A
S11321E0B1025091B20206B601FE0FC081B792B798
S11321F0280F311D411D511D2F5F3F4F4F4F5F4F22
S1132200290F311D411D511D04C0280F311D411DD1
S1132210511D862F99278FBF6091480261FF92C498
S11322208091400290914102A0914202B0914302F8
S1132230E0904402F090450200914602109147025A
S1132240281B390B4A0B5B0B2E153F054007510722
S113225008F478C460FF04C06D7F609348020CC02A
S11322608E0D9F1DA01FB11F8093400290934102C9
S1132270A0934202B09343028FB7F894082F11271A
S1132280F02E809111018430B9F08530F9F081305D
S113229019F590E080918C02833009F491E0992340
S11322A031F580910401843019F085E080930401B4
S11322B081E00E940F0810C085E080931101109204
S11322C0CF0269E380E00E94D20506C00E9499090A
S11322D083E00E940F08F0C280911101843009F458
S11322E0DDC0853009F4A9C0813009F033C1809183
S11322F0480281FD2FC190E0809188028F3108F05F
S113230091E0992309F468C080914E0290914F02A4
S1132310892B89F56FB7F89482B72091AF02309179
S1132320B0024091B1025091B20206B601FE0FC054
S113233081B792B7280F311D411D511D2F5F3F4FAB
S11323404F4F5F4F290F311D411D511D04C0280FF0
S1132350311D411D511D862F99278FBF20934002A7
S113236030934102409342025093430280E09AE04A
S1132370A0E0B0E0C6C06FB7F89482B72091AF0276
S11323803091B0024091B1025091B20206B601FE02
S11323900FC081B792B7280F311D411D511D2F5F0A
S11323A03F4F4F4F5F4F290F311D411D511D04C039
S11323B0280F311D411D511D862F99278FBF209352
S11323C040023093410240934202509343028EE113
S11323D090E0A0E0B0E095C06FB7F89482B7209188
S11323E0AF023091B0024091B1025091B20206B6F0
S11323F001FE0FC081B792B7280F311D411D511D39
S11324002F5F3F4F4F4F5F4F290F311D411D511D0E
S113241004C0280F311D411D511D862F99278FBFE0
S1132420209340023093410240934202509343026E
S113243080E098E0A0E0B0E064C06FB7F89482B7A1
S11324402091AF023091B0024091B1025091B2029A
S113245006B601FE0FC081B792B7280F311D411D8A
S1132460511D2F5F3F4F4F4F5F4F290F311D411DAE
S1132470511D04C0280F311D411D511D862F992760
S11324808FBF209340023093410240934202509305
S1132490430281E090E0A0E0B0E033C060914E02DE
S11324A070914F02EFB7F89482B72091AF02309148
S11324B0B0024091B1025091B20206B601FE0FC0C3
S11324C081B792B7280F311D411D511D2F5F3F4F1A
S11324D04F4F5F4F290F311D411D511D04C0280F5F
S11324E0311D411D511D8E2F99278FBF209340020E
S11324F0309341024093420250934302CB01AA27F6
S1132500BB278093440290934502A0934602B09364
S11325104702809148028360809348029FB7F894F1
S11325208091CB028F3F99F48091D002893009F0D9
S113253062C50DC089E08093C10207C0E091D0025A
S1132540FF27EE53FD4F89E080838093D002892FCB
S113255099278FBFFFBEF6C2EFB7F89482B72091D8
S1132560AF023091B0024091B1025091B20206B66E
S113257001FE11C081B792B7BA01A901480F511DDC
S1132580611D711D4F5F5F4F6F4F7F4F490F511D8D
S1132590611D711D06C0BA01A901480F511D611DBD
S11325A0711D8E2F99278FBF8FB7F894992710929A
S11325B0B6028FBFE0914802E1FFD6C50091400208
S11325C01091410220914202309143024A015B0181
S11325D0801A910AA20AB30A80914402909145029A
S11325E0A0914602B09147026C017D01C818D90838
S11325F0EA08FB08FFEFCF16FFEFDF06FFEFEF0659
S1132600FFE7FF0609F4B0C51C141D041E041F04D3
S11326100CF4AEC262C5E0FF04C0ED7FE093480253
S11326200CC0080F191F2A1F3B1F00934002109370
S1132630410220934202309343028FB7F894082F4B
S113264030911101343009F493C0353009F49AC043
S1132650313009F038C190E080918C02833009F464
S113266091E0992309F03AC180910401843009F47E
S1132670C8C485E08093040130934D0224C192E0E4
S11326809093130110928902379A80910701813047
S113269029F41092070183E08093130180910701CC
S11326A0882309F4B6C43093130110928902379A2F
S11326B0813009F008C12EC08091520280FF54C0BD
S11326C002C1833C910518F086E090E019C0813680
S11326D0910518F085E090E013C08033910518F05F
S11326E084E090E00DC08831910518F083E090E01B
S11326F007C00C9718F082E090E002C080E090E000
S11327008770987D982B986D892F992786B9842F87
S113271099271FC0809113018130E9F49FB7F89481
S11327208091C8028F3F99F48091D002863009F0DD
S113273099C40DC086E08093C10207C0E091D00225
S1132740FF27EE53FD4F86E080838093D002892FCC
S113275099278FBFB8C0823009F0B5C01092070125
S113276083E080931301AFC0816080935202ABC0B9
S113277085E0809311011092CF0269E380E00E940A
S1132780D205A1C06091910289E00E94D20560E067
S11327908BE00E94D20561E180E00E94D2058DE7C2
S11327A090E0019701960197E1F78091040184304C
S11327B009F07FC093E09093040180911301882372
S11327C0E9F422E02093130110928902379A809150
S11327D00701813021F41092070190931301909125
S11327E00701992309F444C481E0809313011092F2
S11327F08902379A913009F05FC02EC0809152024D
S113280080FF53C059C0833C910518F086E090E0E6
S113281019C08136910518F085E090E013C080332B
S1132820910518F084E090E00DC08831910518F00E
S113283083E090E007C00C9718F082E090E002C0BB
S113284080E090E08770187D182B186D812F9927F0
S113285086B9832F99271FC0809113018130E9F431
S11328609FB7F8948091C8028F3F99F48091D00269
S1132870863009F026C40DC086E08093C10207C0EB
S1132880E091D002FF27EE53FD4F86E080838093D2
S1132890D002892F99278FBF0FC0823069F410921C
S11328A0070183E08093130107C081608093520283
S11328B003C083E080934D0280E590E00197019688
S11328C00197E1F73EC180911101843009F4DDC024
S11328D0853009F4A9C0813009F033C180914802E0
S11328E081FD2FC190E0809188028F3108F091E042
S11328F0992309F468C080914E0290914F02892B6C
S113290089F56FB7F89482B72091AF023091B00285
S11329104091B1025091B20206B601FE0FC081B7D8
S113292092B7280F311D411D511D2F5F3F4F4F4F4F
S11329305F4F290F311D411D511D04C0280F311D4A
S1132940411D511D862F99278FBF2093400230933C
S11329504102409342025093430280E09AE0A0E097
S1132960B0E0C6C06FB7F89482B72091AF0230913F
S1132970B0024091B1025091B20206B601FE0FC0FE
S113298081B792B7280F311D411D511D2F5F3F4F55
S11329904F4F5F4F290F311D411D511D04C0280F9A
S11329A0311D411D511D862F99278FBF2093400251
S11329B03093410240934202509343028EE190E0EF
S11329C0A0E0B0E095C06FB7F89482B72091AF0251
S11329D03091B0024091B1025091B20206B601FEAC
S11329E00FC081B792B7280F311D411D511D2F5FB4
S11329F03F4F4F4F5F4F290F311D411D511D04C0E3
S1132A00280F311D411D511D862F99278FBF2093FB
S1132A10400230934102409342025093430280E0CB
S1132A2098E0A0E0B0E064C06FB7F89482B720915A
S1132A30AF023091B0024091B1025091B20206B699
S1132A4001FE0FC081B792B7280F311D411D511DE2
S1132A502F5F3F4F4F4F5F4F290F311D411D511DB8
S1132A6004C0280F311D411D511D862F99278FBF8A
S1132A702093400230934102409342025093430218
S1132A8081E090E0A0E0B0E033C060914E0270912C
S1132A904F02EFB7F89482B72091AF023091B002A1
S1132AA04091B1025091B20206B601FE0FC081B747
S1132AB092B7280F311D411D511D2F5F3F4F4F4FBE
S1132AC05F4F290F311D411D511D04C0280F311DB9
S1132AD0411D511D8E2F99278FBF209340023093A3
S1132AE041024093420250934302CB01AA27BB27E1
S1132AF08093440290934502A0934602B093470208
S1132B00809148028360809348029FB7F894809133
S1132B10CB028F3F99F48091D002893009F0D7C25B
S1132B200DC089E08093C10207C0E091D002FF2765
S1132B30EE53FD4F89E080838093D002892F99273B
S1132B408FBF0FBF9FB7F8948091CB028F3F09F0DE
S1132B50E4C08091D002893009F0C6C2DEC089E0A9
S1132B60D0C0E091D002FF27EE53FD4F89E0D2C0E0
S1132B70C092BB02D092BC02E092BD02F092BE02AF
S1132B8021E0209349028FB7F89499272093B60245
S1132B904093940250939502609396027093970227
S1132BA0C092B702D092B802E092B902F092BA028F
S1132BB08FBF8FB7F894282F3327E22F91B782B7AE
S1132BC046B7981711F041FF02C02FBFCDC28091C4
S1132BD0B602882309F460C06FB7F89482B72091D5
S1132BE0AF023091B0024091B1025091B20206B6E8
S1132BF001FE0FC081B792B7280F311D411D511D31
S1132C002F5F3F4F4F4F5F4F290F311D411D511D06
S1132C1004C0280F311D411D511D862F99278FBFD8
S1132C20E0909402F0909502009196021091970220
S1132C308091B7029091B802A091B902B091BA0202
S1132C402E193F09400B510B281739074A075B0718
S1132C5020F01092B60271E020C0A8019701280F5D
S1132C60391F4A1F5B1F8091AF029091B002A0915F
S1132C70B102B091B202281B390B4A0B5B0B273E01
S1132C8031054105510540F4822F223010F070E0E7
S1132C9005C070E082E002C070E086EE682F6150EB
S1132CA000B601FCFDCF82B7681709F46F5F20916D
S1132CB0AF023091B0024091B1025091B202DA01F8
S1132CC0C9010196A11DB11D860F911DA11DB11D44
S1132CD082179307A407B50710F4622F609561BFAC
S1132CE0EFBF772309F440C29FB7F8948091CA02DA
S1132CF08F3F99F48091D002883009F0FBC10DC058
S1132D0088E08093C10207C0E091D002FF27EE5310
S1132D10FD4F88E080838093D002892F99278FBF4D
S1132D2023C29091C002852F8923C1F0E42FFF278D
S1132D30EE0FFF1FE55BFD4F208131811182108270
S1132D40852F809598239093C002442339F424510D
S1132D50324009F006C21092100103C24F5F48309E
S1132D6008F002C2550FDDCF50910A01588FE52FAC
S1132D70FF27EE0FFF1FE55BFD4F808191819F8B45
S1132D808E8B1182108210920A01A0914B02B09195
S1132D904C02BC8BAB8BAB2B21F08091C00280FF2B
S1132DA0BBC181E080930A01EBC080918C0288232F
S1132DB049F49FBF9FB7F8948091CD028F3F09F0EB
S1132DC0DCC0C8C08091D40282608093D402EB89B5
S1132DD0FC894483F0935502E09354029FBFFFB7EC
S1132DE0FD8BF89480918F02826080938F02809192
S1132DF011018430E1F49FB7F8948091C4028F3FAD
S1132E0099F48091D002823009F07AC10DC082E039
S1132E108093C10207C0E091D002FF27EE53FD4F1B
S1132E2082E080838093D002892F99278FBF80917D
S1132E308F0280FD50C02090820230908302409027
S1132E40840250908502662477248824FEE4AF2E01
S1132E50E3E8BE2ECC24DD24EE24FF2400E010E0C1
S1132E60222D332D442D552D662D772D882D90E060
S1132E700E945C3428A739A74AA75BA76CA77DA743
S1132E808EA79FA7822E932EA42EB52E2401350142
S1132E9000E20E945A35A22EB32EC42ED52ED301A1
S1132EA0C201B695A795979587958A0D9B1DAC1D74
S1132EB0BD1DB7FF04C0BF770196A11DB11D80934E
S1132EC0820290938302A0938402B09385028F714F
S1132ED09070019602C081E090E09093B4028093D8
S1132EE0B302AB89BC899596EB89FC8985A126A19F
S1132EF09927782F66273327622B732B77FD05C01C
S1132F0060914E0270914F0202C060957095FD0170
S1132F1011821C926115710529F466E070E080E06D
S1132F2090E010C08827992726E632E040E050E080
S1132F300E946736672F782F892F99276A5E7F4F03
S1132F408F4F9F4F7093AB026093AA02FD898F2F1E
S1132F50992715C08091D0028B3009F0D7C00DC0DD
S1132F608BE08093C10207C0E091D002FF27EE53AB
S1132F70FD4F8BE080838093D002892F99278FBFE8
S1132F80288D222309F0F0C04E895F8944515240B4
S1132F9009F0EAC010921001E7C08091C1028F3F8E
S1132FA011F00C948A0B0C94860B8091C1028F3F14
S1132FB011F00C94CA0B0C94C70B8091C1028F3F83
S1132FC011F00C94520C0C944E0C8091C1028F3F62
S1132FD011F00C94A40E0C94A00E8091C1028F3FAA
S1132FE011F00C94770F0C94740F8091C1028F3FF1
S1132FF009F0E2C8DDC88091C1028F3F09F09ECA82
S113300099CA3093040180911301882309F437CBC2
S113301053CB9093AE021092B5024FB7F8949091AF
S1133020CE02892F8E7F8093CE0287B120E08295D5
S113303086958695837009F021E023272170220F5D
S11330409C7F922B93789093CE0217B88091920232
S113305090919302A1E086389A0708F432CB87E076
S113306090E04ECB8091C1028F3F09F067CB62CBD9
S11330702093AE021092B5023FB7F8949091CE021D
S1133080892F8E7F8093CE0287B120E0829586952A
S11330908695837009F021E081E02827220F9C7F28
S11330A0922B93789093CE0217B8809192029091CC
S11330B09302B1E086389B0708F4A5CB87E090E043
S11330C0C1CB8091C1028F3F09F0DACBD5CB80917F
S11330D0C1028F3F09F029CD24CD88169906AA068E
S11330E0BB0608F098CA2ECD8091C1028F3F09F02B
S11330F038CD35CD8091C1028F3F09F005CE00CE89
S11331008091C1028F3F09F086CE81CE8091C102A9
S11331108F3F09F029CF24CFEB89FC89808121815D
S11331209927982F88273327822B932B44818183D7
S1133130892F992780832FB7F8943327809108012A
S1133140909109012FBF8383892F9927828382E27B
S113315085838FB7F894982F8091D40281FD29CE6E
S113316024CE550F41E0DDCDAF960FB6F894DEBF07
S11331700FBECDBFDF91CF911F910F91FF90EF90C4
S1133180DF90CF90BF90AF909F908F907F906F9083
S11331905F904F903F902F900895C9ECD0E1DEBF2F
S11331A0CDBF2FB728A3F8944CE050E06FEF70E048
S11331B082EC92E00E9460368FEF8093C10280938C
S11331C0D00281E08EBD88E080BF83E083BF8CB5F0
S11331D09DB54AE72CB53DB52817390708F4415089
S11331E0442311F0C901F6CF92B782B78917E9F3E6
S11331F02CB53DB592B782B78917E9F38CB59DB567
S1133200821B930B4096B5E096958795BA95E1F7A6
S1133210909393028093920213BE83B78EBD8EB5B2
S113322080BF12BE1DBC1CBC8FEF86BF86B78093C7
S11332307C0080B7992787709070892BD1F715BAD5
S11332408FEF84BBD498DC9816B8D6988C9A8E9A53
S11332508F9A949A979A969A6FE380E00E94D20587
S113326060E08BE00E94D205B998BF98BB98BA98E9
S113327080E285BF8091C1028F3F11F40C94142524
S11332809091C102E091C102FF27EE53FD4F80816E
S11332908093C1028091C1028F3F11F48093D002C8
S11332A0292F3327F901EE53FD4F4FEF40832F3F72
S11332B011F40C941425253009F410C3263080F43D
S11332C0223009F475C1233028F4222341F121303E
S11332D089F669C1233009F457C2243059F6D0C2A3
S11332E0283009F4AFC5293038F4263009F440C534
S11332F0273009F0BFCFA3C52A3041F02A3008F4A3
S113330078C62B3009F0B6CF0C94F8238091C00214
S1133310882309F4AFCF40E051E00C94D6231FB7C3
S1133320F89480911101843009F4DDC0853009F4EA
S1133330A9C0813009F034C18091480281FD30C1B7
S113334090E0809188028F3108F091E0992309F48C
S113335068C080914E0290914F02892B89F56FB716
S1133360F89482B72091AF023091B0024091B1023B
S11333705091B20206B601FE0FC081B792B7280F72
S1133380311D411D511D2F5F3F4F4F4F5F4F290F7F
S1133390311D411D511D04C0280F311D411D511DFA
S11333A0862F99278FBF2093400230934102409388
S11333B042025093430280E09AE0A0E0B0E0C6C02D
S11333C06FB7F89482B72091AF023091B002409168
S11333D0B1025091B20206B601FE0FC081B792B796
S11333E0280F311D411D511D2F5F3F4F4F4F5F4F20
S11333F0290F311D411D511D04C0280F311D411DD0
S1133400511D862F99278FBF20934002309341028C
S113341040934202509343028EE190E0A0E0B0E07A
S113342095C06FB7F89482B72091AF023091B00283
S11334304091B1025091B20206B601FE0FC081B7AD
S113344092B7280F311D411D511D2F5F3F4F4F4F24
S11334505F4F290F311D411D511D04C0280F311D1F
S1133460411D511D862F99278FBF20934002309311
S11334704102409342025093430280E098E0A0E06E
S1133480B0E064C06FB7F89482B72091AF02309176
S1133490B0024091B1025091B20206B601FE0FC0D3
S11334A081B792B7280F311D411D511D2F5F3F4F2A
S11334B04F4F5F4F290F311D411D511D04C0280F6F
S11334C0311D411D511D862F99278FBF2093400226
S11334D030934102409342025093430281E090E0D2
S11334E0A0E0B0E033C060914E0270914F02EFB79C
S11334F0F89482B72091AF023091B0024091B102AA
S11335005091B20206B601FE0FC081B792B7280FE0
S1133510311D411D511D2F5F3F4F4F4F5F4F290FED
S1133520311D411D511D04C0280F311D411D511D68
S11335308E2F99278FBF20934002309341024093EE
S1133540420250934302CB01AA27BB278093440233
S113355090934502A0934602B0934702809148029B
S11335608360809348029FB7F8948091CB028F3F89
S1133570A1F48091D002893011F00C94F6270DC08B
S113358089E08093C10207C0E091D002FF27EE5387
S1133590FD4F89E080838093D002892F99278FBFC4
S11335A0812F992703C08FB7F89499278FBF62CED4
S11335B01FB7F89480918F0281FD06C080914E025E
S11335C090914F02892B61F58091110184508230D2
S11335D008F0ADC080910401843019F085E0809337
S11335E0040181E0809311019FB7F8948091C20295
S11335F08F3F89F48091D002882369F00C94FE27D0
S11336001092C10206C0E091D002FF27EE53FD4F95
S113361010821092D002892F99278FBF21E088C091
S113362090E0809188028F3108F091E0992309F4A9
S11336307EC090E080918C02833009F491E099235C
S113364009F075C06FE380E00E94D20560E08BE072
S11336500E94D20581E080938C026F98B89AC0983A
S113366080910401843019F085E08093040184E0A2
S11336708093110160914E0270914F02EFB7F8945C
S113368082B72091AF023091B0024091B1025091C3
S1133690B20206B601FE0FC081B792B7280F311DE2
S11336A0411D511D2F5F3F4F4F4F5F4F290F311D5C
S11336B0411D511D04C0280F311D411D511D8E2F68
S11336C099278FBF209340023093410240934202D6
S11336D050934302CB01AA27BB27809344029093C3
S11336E04502A0934602B09347028091480283604A
S11336F0809348029FB7F8948091CB028F3FA1F446
S11337008091D002893011F00C9406280DC089E014
S11337108093C10207C0E091D002FF27EE53FD4F12
S113372089E080838093D002892F99278FBF20E07E
S1133730812F99278FBF222309F49CCD6BE380E06E
S11337400E94D20580ED97E0019701960197E1F779
S113375069E380E00E94D20588EC90E0019701962D
S11337600197E1F70FB7F894112782E080938C0258
S113377010928702109286020E949909BB98BA9807
S113378080EC8DB9B8987AC08FB7F89499272091B6
S11337908A0230918B028FBF80915302E82FFF275A
S11337A0EE0FFF1FE856FD4F318320838F5F809318
S11337B05302893010F010925302809188028F31A5
S11337C018F48F5F80938802DE011196E8E9F2E035
S11337D082E101900D928150E1F760E08E010F5F6C
S11337E01F4F41E050E0DE011396E52FFF27EE0F57
S11337F0FF1FE00FF11F2D913C9111978081918162
S11338008217930708F4542F4F5F1296493069F7D3
S1133810E52FFF27633041F0EE0FFF1FE00FF11F8C
S1133820118210826F5FDDCF6091050170910601F6
S11338308827992735E0660F771F881F991F3A95C7
S1133840D1F7EE0FFF1FE00FF11F208131814427D4
S11338505527220F331F441F551F620F731F841FE8
S1133860951F0FB7F894112722E230E040E050E0B2
S11338700E94863630930601209305010FBFFACCCF
S11338802FB7F894332740915402509155028091F8
S1133890D4028D7F8093D40282E080938C021092B4
S11338A08702109286022FBF80910A01882309F0B3
S11338B0E1CC20914B0230914C022417350709F0DA
S11338C0D9CC10924C0210924B0281E080930A01F1
S11338D02451324009F0CECC0C9410258FB7F894C3
S11338E0282F332780918C02853009F0B0C680914F
S11338F00201909103019F8F8E8F2FBFAE8DBF8DDC
S11339008C91FD0141812FB7F89433276091080110
S1133910709109012FBF9927982F88275527842B49
S1133920952B8617970761F0808121819927982F1D
S113393088273327822B932B8F5F9F4F09F0D8C1A1
S1133940EE8DFF8D8681833909F0D2C12781E08411
S11339508185A2849927AA27BB27BA2FA92F982F3C
S11339608827332744275527522F442733272227D4
S1133970FF24002711278701FF24EE242E293F2945
S1133980402B512BBB24CC24DD242A293B294C2950
S11339905D29822B932BA42BB52B8A8F9B8FAC8F05
S11339A0BD8F0FB7F89411276A8D7B8D8C8D9D8DFB
S11339B00E940A03222E332E442E552E662E772E75
S11339C0882E992E0FBF80911001882309F090C191
S11339D08091180280930C00FA8DF0931E022A8DB8
S11339E03B8D4C8D5D8DBB27A52F942F832F80930A
S11339F01D02CA01AA27BB2780931C02852F992781
S1133A00AA27BB2780931B022092260208E0222DBE
S1133A10332D442D552D662D772D882D992D0E94FB
S1133A205A352093250200E1222D332D442D552DA6
S1133A30662D772D882D992D0E945A3520932402C6
S1133A4008E1222D332D442D552D662D772D882DFB
S1133A50992D0E945A352093230200E2222D332D02
S1133A60442D552D662D772D882D992D0E945A357C
S1133A702093220208E2222D332D442D552D662D4C
S1133A80772D882D992D0E945A352093210200E329
S1133A90222D332D442D552D662D772D882D992DCE
S1133AA00E945A352093200208E3222D332D442D01
S1133AB0552D662D772D882D992D0E945A352093EA
S1133AC01F023FEF309315023093140222E9209332
S1133AD01A0280914B0290914C02892B09F008C183
S1133AE044E152E050934C0240934B024CE040932B
S1133AF0180280910A01882309F4F7C010920A0180
S1133B008FEF9FEF809315028FEF90E08093140264
S1133B102FB7F894332780910801909109012FBFA2
S1133B2080931702892F99278093160282E280934B
S1133B3019028FB7F894282F33279091D40291FD5E
S1133B4004C080918C02882349F42FBF81E08093C4
S1133B500A0110924C0210924B02CAC092609093D8
S1133B60D4024093180284E192E09093550280932A
S1133B7054022FBF9FB7998FF89480918F0282606F
S1133B8080938F02809111018430E9F49FB7F894F7
S1133B908091C4028F3FA1F48091D002823011F051
S1133BA00C940E280DC082E08093C10207C0E091FE
S1133BB0D002FF27EE53FD4F82E080838093D00232
S1133BC0892F99278FBF80918F0280FD50C020904C
S1133BD082023090830240908402509085026624D1
S1133BE077248824EEE4AE2E73E8B72ECC24DD24AB
S1133BF0EE24FF2400E010E0222D332D442D552D1A
S1133C00662D772D882D90E00E945C342FA338A771
S1133C1049A75AA76BA77CA78DA79EA7822E932E90
S1133C20A42EB52E2401350100E20E945A35A22E9D
S1133C30B32EC42ED52ED301C201B695A795979560
S1133C4087958A0D9B1DAC1DBD1DB7FF04C0BF77B2
S1133C500196A11DB11D8093820290938302A093CB
S1133C608402B09385028F719070019602C081E046
S1133C7090E09093B4028093B30280913902992723
S1133C80782F662780913A029927682B792B77FD44
S1133C9005C060914E0270914F0202C0609570950C
S1133CA0E9E3F2E01182109239026115710529F4F9
S1133CB066E070E080E090E010C08827992726E64F
S1133CC032E040E050E00E946736672F782F892F5A
S1133CD099276A5E7F4F8F4F9F4F7093AB0260931B
S1133CE0AA02A98D8A2F99278FBF81E080931001A2
S1133CF02FB7F894EE8DFF8D309721F0F0930301E8
S1133D00E093020180918C02853039F482E0809343
S1133D108C021092870210928602809111018230E7
S1133D2021F580910401843019F085E08093040129
S1133D3081E0809311019FB7F8948091C2028F3F74
S1133D4089F48091D002882369F00C94162810928B
S1133D50C10206C0E091D002FF27EE53FD4F10824E
S1133D601092D002892F99278FBF822F99271ECCBA
S1133D702FB7F8943327809189028093070183E059
S1133D80809313012FBF80910701882309F072CA21
S1133D9082E08093AE021092B5023FB7F8949091FE
S1133DA0CE02892F8E7F8093CE0287B120E0829548
S1133DB086958695837009F021E081E02827220FFB
S1133DC09C7F922B93789093CE0219A2F0E08F2FD0
S1133DD0992787B9809192029091930221E08638C5
S1133DE0920718F087E090E01FC0833C910518F01B
S1133DF086E090E019C08136910518F085E090E0E6
S1133E0013C08033910518F084E090E00DC0883130
S1133E10910518F083E090E007C00C9718F082E059
S1133E2090E002C080E090E087704AA1487D842B36
S1133E30886D8AA3992786B9832F9927B7CB1092C7
S1133E40AE0218CA80914902882309F043C0E09069
S1133E50BB02F090BC020091BD021091BE026FB78C
S1133E60F89477272091940230919502409196021C
S1133E70509197028091B7029091B802A091B90233
S1133E80B091BA02280F391F4A1F5B1F6FBFE0921F
S1133E90BB02F092BC020093BD021093BE021092CA
S1133EA049026FB7F894772781E08093B602209394
S1133EB09402309395024093960250939702E092B5
S1133EC0B702F092B8020093B9021093BA026FBF1E
S1133ED00E9407066FB7F89482B72091AF02309121
S1133EE0B0024091B1025091B20206B601FE0FC079
S1133EF081B792B7280F311D411D511D2F5F3F4FD0
S1133F004F4F5F4F290F311D411D511D04C0280F14
S1133F10311D411D511D862F99278FBF6091480285
S1133F2061FF52C38091400290914102A0914202EC
S1133F30B0914302E0904402F090450200914602A1
S1133F4010914702281B390B4A0B5B0B2E153F05BA
S1133F504007510708F438C360FF04C06D7F6093C5
S1133F6048020CC08E0D9F1DA01FB11F80934002FC
S1133F7090934102A0934202B09343028FB7F89406
S1133F80082F1127F02E809111018430B9F085306B
S1133F90F9F0813051F590E080918C02833009F47E
S1133FA091E0992311F580910401843019F085E0A2
S1133FB08093040181E00E940F0817C085E080937C
S1133FC011011092CF0269E380E00E94D2050DC076
S1133FD00E94990983E00E940F0880E590E0019710
S1133FE001960197E1F70FBFEFC20E94CB06FFBE17
S1133FF0EBC2EFB7F89482B72091AF023091B002D0
S11340004091B1025091B20206B601FE11C081B7CF
S113401092B7BA01A901480F511D611D711D4F5F6F
S11340205F4F6F4F7F4F490F511D611D711D06C0BA
S1134030BA01A901480F511D611D711D8E2F9927C9
S11340408FBF8FB7F89499271092B6028FBFE09173
S11340504802E1FF0FC900914002109141022091F2
S11340604202309143024A015B01801A910AA20A7A
S1134070B30A8091440290914502A0914602B09106
S113408047026C017D01C818D908EA08FB08FFEF54
S1134090CF16FFEFDF06FFEFEF06FFE7FF0609F499
S11340A0E9C81C141D041E041F040CF4A3C20C94C0
S11340B09928E0FF04C0ED7FE09348020CC0080F8C
S11340C0191F2A1F3B1F00934002109341022093A3
S11340D04202309343028FB7F894182F30911101A4
S11340E0343009F497C0353009F49EC0313009F0FA
S11340F02CC190E080918C02833009F491E09923E3
S113410009F02EC180910401843011F40C941E280E
S113411085E08093040130934D0217C192E090939F
S1134120130110928902379A80910701813029F492
S11341301092070183E08093130180910701882383
S113414011F40C9428283093130110928902379AA1
S1134150813009F0FAC02FC08091520280FF56C00E
S1134160F4C0833C910518F086E090E019C08136D4
S1134170910518F085E090E013C08033910518F0A4
S113418084E090E00DC08831910518F083E090E060
S113419007C00C9718F082E090E002C080E090E045
S11341A087702CA1287D822B886D8CA3992786B9D2
S11341B0842F992720C0809113018130F1F49FB797
S11341C0F8948091C8028F3FA1F48091D002863088
S11341D011F00C9457280DC086E08093C10207C0EB
S11341E0E091D002FF27EE53FD4F86E08083809359
S11341F0D002892F99278FBFA8C0823009F0A5C0AB
S11342001092070183E0809313019FC08160809323
S113421052029BC085E0809311011092CF0269E3A2
S113422080E00E94D20591C00E9499098091040106
S1134230843009F080C093E09093040180911301CD
S11342408823E9F422E02093130110928902379A1B
S113425080910701813021F410920701909313019A
S113426090910701992309F42AC781E080931301EF
S113427010928902379A913009F060C02FC0809162
S1134280520280FF54C05AC0833C910518F086E066
S113429090E019C08136910518F085E090E013C0D4
S11342A08033910518F084E090E00DC088319105C9
S11342B018F083E090E007C00C9718F082E090E0DB
S11342C002C080E090E087704EA1487D842B886D09
S11342D08EA3992786B9832F99271FC08091130134
S11342E08130E9F49FB7F8948091C8028F3F99F424
S11342F08091D002863009F010C70DC086E080930B
S1134300C10207C0E091D002FF27EE53FD4F86E0C3
S113431080838093D002892F99278FBF0FC082306A
S113432069F41092070183E08093130107C0816050
S11343308093520203C083E080934D0280E590E0B5
S1134340019701960197E1F73EC1809111018430F4
S113435009F4DDC0853009F4A9C0813009F033C106
S11343608091480281FD2FC190E0809188028F31B5
S113437008F091E0992309F468C080914E0290916D
S11343804F02892B89F56FB7F89482B72091AF0259
S11343903091B0024091B1025091B20206B601FED2
S11343A00FC081B792B7280F311D411D511D2F5FDA
S11343B03F4F4F4F5F4F290F311D411D511D04C009
S11343C0280F311D411D511D862F99278FBF209322
S11343D0400230934102409342025093430280E0F2
S11343E09AE0A0E0B0E0C6C06FB7F89482B720911D
S11343F0AF023091B0024091B1025091B20206B6C0
S113440001FE0FC081B792B7280F311D411D511D08
S11344102F5F3F4F4F4F5F4F290F311D411D511DDE
S113442004C0280F311D411D511D862F99278FBFB0
S1134430209340023093410240934202509343023E
S11344408EE190E0A0E0B0E095C06FB7F89482B739
S11344502091AF023091B0024091B1025091B2026A
S113446006B601FE0FC081B792B7280F311D411D5A
S1134470511D2F5F3F4F4F4F5F4F290F311D411D7E
S1134480511D04C0280F311D411D511D862F992730
S11344908FBF2093400230934102409342025093D5
S11344A0430280E098E0A0E0B0E064C06FB7F89405
S11344B082B72091AF023091B0024091B102509185
S11344C0B20206B601FE0FC081B792B7280F311DA4
S11344D0411D511D2F5F3F4F4F4F5F4F290F311D1E
S11344E0411D511D04C0280F311D411D511D862F32
S11344F099278FBF20934002309341024093420298
S11345005093430281E090E0A0E0B0E033C06091BA
S11345104E0270914F02EFB7F89482B72091AF0228
S11345203091B0024091B1025091B20206B601FE40
S11345300FC081B792B7280F311D411D511D2F5F48
S11345403F4F4F4F5F4F290F311D411D511D04C077
S1134550280F311D411D511D8E2F99278FBF209388
S11345604002309341024093420250934302CB01F4
S1134570AA27BB278093440290934502A093460246
S1134580B0934702809148028360809348029FB7AA
S1134590F8948091CB028F3F99F48091D0028930B6
S11345A009F0C1C50DC089E08093C10207C0E09144
S11345B0D002FF27EE53FD4F89E080838093D00221
S11345C0892F99278FBF1FBF9FB7F8948091CB0283
S11345D08F3F09F0E6C08091D002893009F0B1C55F
S11345E0E0C089E0D2C0E091D002FF27EE53FD4F36
S11345F089E0D4C0C092BB02D092BC02E092BD025A
S1134600F092BE0221E0209349028FB7F8949927D3
S11346102093B602409394025093950260939602BD
S113462070939702C092B702D092B802E092B90296
S1134630F092BA028FBF8FB7F894282F3327E22F56
S113464091B782B746B7981711F041FF03C02FBF47
S11346500C943A198091B602882309F460C06FB7AC
S1134660F89482B72091AF023091B0024091B10228
S11346705091B20206B601FE0FC081B792B7280F5F
S1134680311D411D511D2F5F3F4F4F4F5F4F290F6C
S1134690311D411D511D04C0280F311D411D511DE7
S11346A0862F99278FBFE0909402F0909502009195
S11346B09602109197028091B7029091B802A0914E
S11346C0B902B091BA022E193F09400B510B2817B9
S11346D039074A075B0720F01092B60271E020C048
S11346E0A8019701280F391F4A1F5B1F8091AF0251
S11346F09091B002A091B102B091B202281B390B83
S11347004A0B5B0B273E31054105510540F4822FCE
S1134710223010F070E005C070E082E002C070E06A
S113472086EE682F615000B601FCFDCF82B7681792
S113473009F46F5F2091AF023091B0024091B10251
S11347405091B202DA01C9010196A11DB11D860F73
S1134750911DA11DB11D82179307A407B50710F47D
S1134760622F609561BFEFBF772311F40C943A195F
S11347709FB7F8948091CA028F3F99F48091D00238
S1134780883009F0E4C40DC088E08093C10207C0FA
S1134790E091D002FF27EE53FD4F88E080838093A1
S11347A0D002892F99270C94D61A550F9091C002E4
S11347B0852F8923C1F0E42FFF27EE0FFF1FE55B50
S11347C0FD4F2081318111821082852F809598239D
S11347D09093C002442339F42451324009F001C5B6
S11347E010921001FEC44F5F4830F8F20C943A194D
S11347F090910A01988FE92FFF27EE0FFF1FE55BC9
S1134800FD4FA081B181BF8BAE8B118210821092BB
S11348100A01E0914B02F0914C02FC8BEB8BEF2BE5
S113482021F08091C00280FFB6C481E080930A0128
S1134830EBC080918C02882349F49FBF9FB7F89402
S11348408091CD028F3F09F0DCC0C8C08091D402B2
S113485082608093D402EB89FC894483F0935502EF
S1134860E09354029FBFFFB7FD8BF89480918F02B1
S1134870826080938F02809111018430E1F49FB7AC
S1134880F8948091C4028F3F99F48091D0028230D1
S113489009F063C40DC082E08093C10207C0E091B7
S11348A0D002FF27EE53FD4F82E080838093D00235
S11348B0892F99278FBF80918F0280FD50C020904F
S11348C082023090830240908402509085026624D4
S11348D0772488249EE4A92E83E8B82ECC24DD24F2
S11348E0EE24FF2400E010E0222D332D442D552D1D
S11348F0662D772D882D90E00E945C342FA738AB6D
S113490049AB5AAB6BAB7CAB8DAB9EAB822E932E7B
S1134910A42EB52E2401350100E20E945A35A22EA0
S1134920B32EC42ED52ED301C201B695A795979563
S113493087958A0D9B1DAC1DBD1DB7FF04C0BF77B5
S11349400196A11DB11D8093820290938302A093CE
S11349508402B09385028F719070019602C081E049
S113496090E09093B4028093B302AB89BC8995968E
S1134970EB89FC8985A126A19927782F66273327FF
S1134980622B732B77FD05C060914E0270914F022C
S113499002C060957095FD0111821C92611571052C
S11349A029F466E070E080E090E010C08827992741
S11349B026E632E040E050E00E946736672F782F09
S11349C0892F99276A5E7F4F8F4F9F4F7093AB0259
S11349D06093AA02FD898F2F992715C08091D00278
S11349E08B3009F0C0C30DC08BE08093C10207C0B7
S11349F0E091D002FF27EE53FD4F8BE0808380933C
S1134A00D002892F99278FBF288D222311F00C946F
S1134A103A194E895F894451524011F00C943A1965
S1134A20109210010C943A1980B7886080BF8BE013
S1134A3083BF86EE81BF87B7826087BF8FB7F89444
S1134A40282F3327E22F91B782B746B7981711F072
S1134A5041FF02C02FBFA8C08091B602882309F489
S1134A6060C06FB7F89482B72091AF023091B00262
S1134A704091B1025091B20206B601FE0FC081B757
S1134A8092B7280F311D411D511D2F5F3F4F4F4FCE
S1134A905F4F290F311D411D511D04C0280F311DC9
S1134AA0411D511D862F99278FBFE0909402F090ED
S1134AB0950200919602109197028091B70290910D
S1134AC0B802A091B902B091BA022E193F09400B65
S1134AD0510B281739074A075B0720F01092B602DA
S1134AE071E020C0A8019701280F391F4A1F5B1FDE
S1134AF08091AF029091B002A091B102B091B20244
S1134B00281B390B4A0B5B0B273E31054105510528
S1134B1040F4822F223010F070E005C070E082E093
S1134B2002C070E086EE682F615000B601FCFDCF34
S1134B3082B7681709F46F5F2091AF023091B00219
S1134B404091B1025091B202DA01C9010196A11D4E
S1134B50B11D860F911DA11DB11D82179307A407D6
S1134B60B50710F4622F609561BFEFBF7723E1F0C2
S1134B709FB7F8948091CA028F3F99F48091D00234
S1134B80883009F0F6C20DC088E08093C10207C0E6
S1134B90E091D002FF27EE53FD4F88E0808380939D
S1134BA0D002892F99278FBF809100019091010134
S1134BB00196AA27BB278093820290938302A09335
S1134BC08402B0938502109252028091D4028160D3
S1134BD08093D4026B986A986F9A6E9A6AE380E025
S1134BE00E94D2056BE380E00E94D20580ED97E03D
S1134BF0019701960197E1F780E880938D0260E8C0
S1134C008BE00E94D20560E984E00E94D20560E056
S1134C108FE00E94D2056FE680E10E94D20565E52F
S1134C2081E10E94D20561E083E10E94D205A1E006
S1134C30EA2EF12C00EC12E0F801C895602D8E2DBF
S1134C400E94D2050894E11CF11C0F5F1F4FFDE088
S1134C50EF16F10489F701ED12E0F801C895602D13
S1134C6082E10E94D20509501040F801C895802DB8
S1134C7080939102065F1F4FF801C895802D8093A1
S1134C80BF0208501040F801C895802D80938D0212
S1134C9060E08BE00E94D2056FE382E40E94D205BB
S1134CA061E180E00E94D20566EA8EE00E94D205AE
S1134CB094988CE120E030E087FF02C0979A01C00D
S1134CC097989698969A2F5F3F4F2730310511F0A9
S1134CD0880FF2CF97989698969A8F98949A80E036
S1134CE096989927879B04C0880F991F816001C0FB
S1134CF0880F969A21503040FFEF2F3F3F0781F7EE
S1134D00949A8F9A979A83FFD3CF66E28EE00E949B
S1134D10D20561EE80E00E94D2056091BF0289E075
S1134D200E94D20560E08BE00E94D20566EA8EE024
S1134D300E94D20594988CE120E030E087FF02C005
S1134D40979A01C097989698969A2F5F3F4F27306D
S1134D50310511F0880FF2CF97989698969A8F980C
S1134D60949A80E096989927879B04C0880F991F8E
S1134D70816001C0880F969A215030404FEF2F3F39
S1134D80340781F7949A8F9A979A83FFD3CF66E278
S1134D908EE00E94D2050E9499096FE380E00E9490
S1134DA0D20560E08BE00E94D205E8E9F2E080E2FF
S1134DB091E08193919352E0EA3AF507D1F780911B
S1134DC0C1028F3FE9F09091C102E091C102FF2737
S1134DD0EE53FD4F80818093C1028091C1028F3FC9
S1134DE011F48093D002292F3327F901EE53FD4F9C
S1134DF08FEF80832F3F21F0822F0E94FF09DFCFA6
S1134E00A8A18A2F99278FBF78948FB7F894282F59
S1134E103327422F80911101882309F074C091E057
S1134E2090938C028091D4028D7F84608093D4020D
S1134E3080910401843019F085E0809304019093FB
S1134E4011019FB7F8948091C2028F3F81F4809141
S1134E50D002882361F093C11092C10206C0E09190
S1134E60D002FF27EE53FD4F10821092D002892FFB
S1134E7099278FBF80918F028D7F80938F024FBFC0
S1134E806BE380E00E94D20580ED97E001970196E4
S1134E900197E1F769E380E00E94D20588EC90E095
S1134EA0019701960197E1F70FB7F894112782E073
S1134EB080938C0210928702109286020E949909B4
S1134EC0BB98BA9880EC8DB9B8980FBF9FB7F89487
S1134ED08091C3028F3F99F48091D002813009F010
S1134EE054C10DC081E08093C10207C0E091D0029B
S1134EF0FF27EE53FD4F81E080838093D002892FFA
S1134F0099278FBF01C02FBF8FB7F894482F55271B
S1134F1049C087B7992783709070892B19F4E5E00D
S1134F20F0E013C080B7992787709070892BD1F770
S1134F3081B792B7891B8C3030F082B7853F18F463
S1134F40E3E0F0E002C0E2E0F0E087B7887BC1F480
S1134F5080917D008B7FA1F46E9912C08AB19091EB
S1134F609A00892B807C61F48091740082FD08C0D2
S1134F70379B03C081E090E005C085E090E002C06B
S1134F8080E090E025B78E1708F4E82FFF27E45758
S1134F90FD4FC895E02D237E2062E22BE5BF789477
S1134FA08895F8948091C1028F3F09F4B2CF909113
S1134FB0C102E091C102FF27EE53FD4F808180932F
S1134FC0C1028091C1028F3F11F48093D002292F36
S1134FD03327F901EE53FD4F8FEF80832F3F09F400
S1134FE098CF4FBF822F0E94FF098ECF8091C102BC
S1134FF08F3F11F00C94C41A0C94C01A8091C10212
S11350008F3F11F00C94031B0C94001B8091C10280
S11350108F3F11F00C948B1B0C94871B8091C10261
S11350208F3F11F00C94D71D0C94D31D8091C102B5
S11350308F3F11F00C94AA1E0C94A71E3093040108
S113504080911301882311F40C948E200C94AC20CD
S11350509093AE021092B5024FB7F8949091CE029D
S1135060892F8E7F8093CE0287B120E0829586952A
S11350708695837009F021E023272170220F9C7FFD
S1135080922B93789093CE021BA2B0E08B2F99279A
S113509087B98091920290919302E1E086389E074D
S11350A010F40C94B12087E090E00C94D02080910F
S11350B0C1028F3F11F00C94F0200C94EC2020934B
S11350C0AE021092B5023FB7F8949091CE02892FA8
S11350D08E7F8093CE0287B120E082958695869557
S11350E0837009F021E081E02827220F9C7F922B16
S11350F093789093CE021DA2F0E08F2F992787B961
S1135100809192029091930221E08638920710F4E4
S11351100C94442187E090E0D6C88091C1028F3F6F
S113512009F0F0C8EBC88091C1028F3F09F03FCA73
S11351303ACA88169906AA06BB0610F00C945920A0
S113514043CA8091C1028F3F09F04DCA4ACA809177
S1135150C1028F3F09F01CCB17CB8091C1028F3F56
S113516009F09DCB98CB8091C1028F3F09F040CCD0
S11351703BCC8091C1028F3F09F00ACD05CD8091CF
S1135180C1028F3F09F06BCE67CE8091C1028F3F81
S113519009F0ACCEA7CEAB89BC898C91FD012181ED
S11351A09927982F88273327822B932B4481818337
S11351B0892F992780832FB7F8943327809108018A
S11351C0909109012FBF8383892F9927828382E2DB
S11351D085838FB7F894982F8091D40281FD2DCBCD
S11351E028CB550F41E0E2CA1F920F920FB60F92DF
S11351F011242F923F924F925F926F927F928F92DF
S11352009F92AF92BF92CF92DF92EF92FF920F9351
S11352101F932F933F934F935F936F937F938F933A
S11352209F93AF93BF93EF93FF93CF93DF93CDB748
S1135230DEB72997DEBFCDBF44B155B178948FB79F
S1135240F89499272091CE02322F3695317021702F
S11352508FBF222309F003C433988091AE028130BA
S113526021F0823009F059C46FC0332309F04CC0D7
S11352708091B502882319F02FE170E002C078E034
S113528020E0622FEFB7F8948091CE028E7F809356
S1135290CE0287B1982F9F718295869586958370EB
S11352A019F080E090E012C0822F8850863118F007
S11352B081E090E00BC040E050E03327892F99272C
S11352C02817390711F441E050E0CA01982F917072
S11352D0990F8091CE028178262F2F71422F440F8F
S11352E0440F892B842B8093CE02332727B978303F
S11352F009F099C0809192029091930221E086383E
S1135300920708F06DC06FC0509351024093500251
S11353109FB7F8948091C9028F3F99F48091D0028D
S1135320873009F0C3C30DC087E08093C10207C072
S1135330E091D002FF27EE53FD4F87E080838093F6
S1135340D002892F992789C38091B502332309F0AC
S113535073C0882319F02FE170E002C078E020E0E8
S1135360622FEFB7F8948091CE028E7F8093CE02A5
S113537087B1982F9F71829586958695837019F0D1
S113538080E090E012C0822F8850863118F081E0CE
S113539090E00BC040E050E03327892F992728176D
S11353A0390711F441E050E0CA01982F9170990F28
S11353B08091CE028178262F2F71422F440F440F03
S11353C0892B842B8093CE02332727B9783059F563
S11353D08091920290919302F1E086389F0718F031
S11353E087E090E01FC0833C910518F086E090E0D0
S11353F019C08136910518F085E090E013C0803320
S1135400910518F084E090E00DC08831910518F002
S113541083E090E007C00C9718F082E090E002C0AF
S113542080E090E0782F7770887D872B886D9927AE
S113543086B98E2F992711C31092AE02882309F0E2
S11354406CC32FB72983F89460910401613091F003
S1135450613038F0623009F443C0633009F043C26C
S113546041C1E0910201F091030146A3852F9927E0
S113547085A339C250938B0240938A029FB7F89454
S11354808091C5028F3F99F48091D002833009F056
S113549013C30DC083E08093C10207C0E091D00222
S11354A0FF27EE53FD4F83E080838093D002892F42
S11354B099278FBF9FB7F8948091C4028F3F09F05A
S11354C069C18091D002823009F0FCC263C182E0DC
S11354D055C1E091D002FF27EE53FD4F82E057C142
S11354E02091CF022F5F2093CF02809105019091EC
S11354F006010C968417950740F4809190028F5F03
S113550080939002882339F402C010929002809113
S11355108F0280FF89C083E08093110187E080932C
S11355208C0210928702109286021092D30210927B
S1135530D2028AEA80934A0280938E02949880E091
S113554097989698969A8F5F8730D1F7979A9698FE
S1135550969A949A91EE80E097FF02C0979A01C0C0
S113556097989698969A8F5F883011F0990FF4CF98
S1135570949A979A969A2091BF02949892E180E027
S113558097FF02C0979A01C097989698969A8F5F52
S1135590873011F0990FF4CF979A9698969A949A27
S11355A080E027FF02C0979A01C097989698969A30
S11355B08F5F883011F0220FF4CF949A979A969ABD
S11355C08AEF90E0019701960197E1F720918D020F
S11355D0949896E180E097FF02C0979A01C097984B
S11355E09698969A8F5F873011F0990FF4CF979A17
S11355F09698969A949A80E027FF02C0979A01C0E1
S113560097989698969A8F5F883011F0220FF4CF6E
S1135610949A979A969A84E190E00197019601975B
S1135620E1F7BB9ABA9A5FC1253009F055C02090C2
S11356308202309083024090840250908502662456
S113564077248824AEE4AA2EF3E8BF2ECC24DD24EC
S1135650EE24FF2400E010E0222D332D442D552D9F
S1135660662D772D882D90E00E945C342A833B833D
S11356704C835D836E837F8388879987822E932EE4
S1135680A42EB52E2401350100E20E945A35A22E23
S1135690B32EC42ED52E192FD301C201B695A795CA
S11356A0979587958A0D9B1DAC1DBD1DB7FF04C042
S11356B0BF770196A11DB11D80938202909383024E
S11356C0A0938402B09385028F709070019690939A
S11356D0B4028093B30207C182E080934D028093A9
S11356E0040108C180910501909106019C01369541
S11356F0279536952795821B930B8417950708F0F9
S11357004DC09FB7F8948091C4028F3F99F4809163
S1135710D002823009F0DCC10DC082E08093C10266
S113572007C0E091D002FF27EE53FD4F82E0808353
S11357308093D002892F99278FBF80910501909182
S113574006019C0103E0369527950A95E1F7820F3F
S1135750931F4817590708F0C6C050938B02409313
S11357608A029FB7F8948091C5028F3F99F4809183
S1135770D002833009F0B2C10DC083E08093C1022E
S113578007C0E091D002FF27EE53FD4F83E08083F2
S11357908093D002892F99278FBFA5C08091CF0213
S11357A08F5F8093CF028150863008F491C085E0EA
S11357B08093040181E0809311019FB7F894809154
S11357C0C2028F3F81F48091D002882361F08CC1A2
S11357D01092C10206C0E091D002FF27EE53FD4FA4
S11357E010821092D002892F99278FBF82E0809374
S11357F08C02109287021092860220919102949852
S113580092E180E097FF02C0979A01C0979896981A
S1135810969A8F5F873011F0990FF4CF979A9698E4
S1135820969A949A80E027FF02C0979A01C09798AD
S11358309698969A8F5F883011F0220FF4CF949A3D
S1135840979A969A949896E180E097FF02C0979A67
S113585001C097989698969A8F5F873011F0990FA8
S1135860F4CF979A9698969A949A80E097989698F7
S1135870969A8F5F8830D1F7949A979A969A9498CB
S113588080E097989698969A8F5F8730D1F7979A89
S11358909698969A949A91E180E097FF02C0979A1D
S11358A001C097989698969A8F5F883011F0990F57
S11358B0F4CF949A979A969A8DE790E0019701967F
S11358C00197E1F7BB98BA9880EC8DB9B8980BC0F2
S11358D060934D0280E590E0019701960197E1F70E
S11358E06093040107C080914D02809304018430C9
S11358F009F454C084E080934D0282E08093AE02A8
S11359001092B5023FB7F8949091CE02892F8E7F02
S11359108093CE0287B120E0829586958695837028
S113592009F021E081E02827220F9078922B9093B0
S1135930CE0217B88091920290919302E1E08638EA
S11359409E0718F087E090E01FC0833C910518F093
S113595086E090E019C08136910518F085E090E06A
S113596013C08033910518F084E090E00DC08831B5
S1135970910518F083E090E007C00C9718F082E0DE
S113598090E002C080E090E08770187D182B186DBD
S1135990812F992786B9832F99275BC080911301A2
S11359A0833009F057C080910701882309F052C061
S11359B080915202882309F0A4C09CC09095A92329
S11359C0A0836093120125C06F5F7F4F6130710522
S11359D011F460E070E0862F869586958695E82F11
S11359E0FF27EE5AFD4FA081462F55279A012770B5
S11359F0307081E090E002C0880F991F2A95E2F789
S1135A00982F8A2F8923D1F660177107E9F64FEF93
S1135A1050E04093890281E0809313019FB7F8948A
S1135A208091C8028F3F99F48091D002863009F0AA
S1135A306EC00DC086E08093C10207C0E091D00221
S1135A40FF27EE53FD4F86E080838093D002892F99
S1135A5099278FBFF9818F2F99278FBF5EC08FB78A
S1135A60F89499278FBF2FB7F894332786B1582F0E
S1135A705770482F4072987D942B952B8074977B98
S1135A80982B90619F77892F992786B9887D842BDD
S1135A90852B87738061992786B9887D842B852B14
S1135AA0877B8069992786B92FBF37C08091C1024F
S1135AB08F3F09F03DCC38CC8091C1028F3F09F073
S1135AC0EDCCE8CC8091C1028F3F09F002CDFFCC30
S1135AD08091C1028F3F09F024CE1FCE8091C10274
S1135AE08F3F09F04ECE49CE8091C1028F3F09F01D
S1135AF072CE6ECE81E08093070110921301379825
S1135B00A9CF80911201082F1127B8015DCF809190
S1135B10C1028F3F09F092CF8DCF2996F894DEBF52
S1135B20CDBFDF91CF91FF91EF91BF91AF919F9145
S1135B308F917F916F915F914F913F912F911F9121
S1135B400F91FF90EF90DF90CF90BF90AF909F9018
S1135B508F907F906F905F904F903F902F900F9019
S1135B600FBE0F901F9018951F920F920FB60F92B1
S1135B7011242F923F924F925F926F927F928F9255
S1135B809F92AF92BF92CF92DF92EF92FF920F93C8
S1135B901F932F933F934F935F936F937F938F93B1
S1135BA09F93AF93BF93EF93FF93CF93DF93CDB7BF
S1135BB0DEB72897DEBFCDBF5FB180918E028FB96B
S1135BC06091D40262FD509580918C02883009F472
S1135BD044C0893098F4843009F4EBC3853038F438
S1135BE0823009F4DEC1833009F03FC6F2C2863048
S1135BF009F411C5873009F038C615C08B3009F493
S1135C0077C08C3030F48930A9F18A3009F02DC680
S1135C1061C08D3009F472C18D3008F4EBC08E3050
S1135C2009F023C69CC180914A0280938E02809120
S1135C308602909187020196909387028093860250
S1135C402091AA023091AB028217930708F40DC683
S1135C5083E380934A0288E006C680914A028093D7
S1135C608E028CEC80934A0289E080938C028FEF41
S1135C709FEFE9C5A0915402B091550280914A0268
S1135C8080938E0220918602309187022F5F3F4FCE
S1135C903093870220938602FD0184819927079619
S1135CA02817390788F42A0F3B1FF9016081609394
S1135CB04A028091D2029091D3020E94C40590932B
S1135CC0D3028093D202D1C58091D20280934A023A
S1135CD08AE0C9C580914A0280938E028091D202E3
S1135CE09091D302892F992780934A028BE013C0A5
